S01300004E54495F447269766572732E73726563E8
S11300000C942A000C94D5020C94FF020C942A033D
S11300100C94A4040C947A040C9450040C94FC03E3
S11300200C9426040C94D2030C94A8030C947E0321
S11300300C9454030C94CE040C9447000C94F804D0
S11300400C94E2000C9447000C9447000C94470075
S11300500C94470011241FBECFE5D8E0DEBFCDBF0E
S113006010E0A0E6B0E0E0E7FAE002C005900D92EF
S1130070A83AB107D9F720E0A8EAB0E001C01D9280
S1130080A93AB207E1F70E94CC000C9436050C940F
S1130090000061E083E00E94120261E082E00E94BD
S11300A0120261E08EE00E94120261E08DE00C9485
S11300B01202EF92FF920F931F93CF93DF93EC0101
S11300C00AE010E0B8010E9422057B01FC01E2561F
S11300D0FF4F608181E00E94C5020E94490060E0F8
S11300E083E00E9412028FE097E20197F1F700C0CB
S11300F00000C701B8010E942205FC01E256FF4F2F
S1130100608181E00E94C5020E94490060E082E0B3
S11301100E9412028FE097E20197F1F700C00000FD
S1130120CE0164E670E00E942205CB01B8010E9472
S11301302205FC01E256FF4F608181E00E94C50266
S11301400E94490060E08DE00E9412028FE097E275
S11301500197F1F700C00000CE0168EE73E00E9441
S11301602205FB01E256FF4F608181E00E94C50237
S11301700E94490060E08EE00E9412028FE097E244
S11301800197F1F700C00000DF91CF911F910F910B
S1130190FF90EF900C9449000E94FF01C8E4D6E25E
S11301A0CE010E9459002FEF80E792E02150804059
S11301B09040E1F700C000002196C13127E2D20748
S11301C079F7ECCF1F920F920FB60F9211242F9351
S11301D03F934F935F936F937F938F939F93AF93CB
S11301E0BF93EF93FF931092A800E0916000F09109
S11301F06100E230F10509F00995FF91EF91BF919B
S1130200AF919F918F917F916F915F914F913F91AA
S11302102F910F900FBE0F901F901895982F9770E5
S1130220869586958695613009F44DC020F062303C
S113023009F496C008958130B1F028F0823019F1A4
S1130240833089F108954AB321E030E0B90102C056
S1130250660F771F9A95E2F7CB01942F982B9ABBE0
S11302609BB3809547C047B321E030E0B90102C099
S1130270660F771F9A95E2F7CB01942F982B97BBC3
S113028098B3809549C044B321E030E0B90102C07D
S1130290660F771F9A95E2F7CB01942F982B94BBA6
S11302A095B380954AC041B321E030E0B90102C062
S11302B0660F771F9A95E2F7CB01942F982B91BB89
S11302C092B380954BC08130C1F028F0823031F177
S11302D08330A9F108954AB321E030E0B90102C0A6
S11302E0660F771F9A95E2F7CB018095942F982398
S11302F09ABB9BB389238BBB089547B321E030E0BD
S1130300B90102C0660F771F9A95E2F7CB01809579
S1130310942F982397BB98B389234BC044B321E00F
S113032030E0B90102C0660F771F9A95E2F7CB015E
S11303308095942F982394BB95B389234CC041B3E3
S113034021E030E0B90102C0660F771F9A95E2F709
S1130350CB018095942F982391BB92B389234DC0F0
S11303608130B9F028F0823031F18330B1F1089551
S11303704AB321E030E0B90102C0660F771F9A95B5
S1130380E2F7CB01962F909594239ABB9BB3892BCC
S1130390B2CF47B321E030E0B90102C0660F771F46
S11303A09A95E2F7CB01962F9095942397BB98B337
S11303B0892B88BB089544B321E030E0B90102C021
S11303C0660F771F9A95E2F7CB01962F90959423A9
S11303D094BB95B3892B85BB089541B321E030E0EC
S11303E0B90102C0660F771F9A95E2F7CB01962FE9
S11303F09095942391BB92B3892B82BB08950F935C
S11304001F93CF930EE710E0C0E0F80161918F01D4
S11304108C2F0E940E01CF5FC032B9F7CF911F918C
S11304200F910895982F97708695869586958130BB
S113043089F138F0823009F456C0833009F47CC065
S113044008952AB330E0092E02C0359527950A9401
S1130450E2F720FF99C0662319F0613071F0089526
S11304604BB321E030E0B90102C0660F771F9A95C3
S1130470E2F7CB01809584230BC04BB321E030E03D
S1130480B90102C0660F771F9A95E2F7CB01842B5E
S11304908BBB089527B330E0092E02C0359527950C
S11304A00A94E2F720FF70C0662319F0613071F0FE
S11304B0089548B321E030E0B90102C0660F771F08
S11304C09A95E2F7CB01809584230BC048B321E0D1
S11304D030E0B90102C0660F771F9A95E2F7CB01AD
S11304E0842B88BB089524B330E0092E02C03595CF
S11304F027950A94E2F720FF47C0662319F061307C
S113050071F0089545B321E030E0B90102C0660FEF
S1130510771F9A95E2F7CB01809584230BC045B3EE
S113052021E030E0B90102C0660F771F9A95E2F727
S1130530CB01842B85BB089521B330E0092E02C082
S1130540359527950A94E2F720FF1EC0662319F01B
S1130550613071F0089542B321E030E0B90102C086
S1130560660F771F9A95E2F7CB01809584230BC021
S113057042B321E030E0B90102C0660F771F9A95BB
S1130580E2F7CB01842B82BB0895813041F028F03F
S1130590823039F0833039F008956BBB089568BB1D
S11305A0089565BB089562BB08951F920F920FB61C
S11305B00F9211242F933F934F935F936F937F93E5
S11305C08F939F93AF93BF93EF93FF93E091660054
S11305D0F0916700E230F10509F00995FF91EF9180
S11305E0BF91AF919F918F917F916F915F914F9147
S11305F03F912F910F900FBE0F901F9018957894F4
S11306001F920F920FB60F9211242F933F934F9383
S11306105F936F937F938F939F93AF93BF93EF9366
S1130620FF93E0916400F0916500E230F10509F078
S11306300995FF91EF91BF91AF919F918F917F9118
S11306406F915F914F913F912F910F900FBE0F903B
S11306501F9018951F920F920FB60F9211242F938B
S11306603F934F935F936F937F938F939F93AF9336
S1130670BF93EF93FF93E0916200F0916300E23047
S1130680F10509F00995FF91EF91BF91AF919F9109
S11306908F917F916F915F914F913F912F910F9027
S11306A00FBE0F901F9018951F920F920FB60F92C6
S11306B011242F933F934F935F936F937F938F9363
S11306C09F93AF93BF93EF93FF93E0916800F091F2
S11306D06900E230F10509F00995FF91EF91BF91AE
S11306E0AF919F918F917F916F915F914F913F91C6
S11306F02F910F900FBE0F901F9018951F920F927D
S11307000FB60F9211242F933F934F935F936F93E0
S11307107F938F939F93AF93BF93EF93FF93E09156
S11307207800F0917900E230F10509F00995FF9124
S1130730EF91BF91AF919F918F917F916F915F9155
S11307404F913F912F910F900FBE0F901F901895CE
S11307501F920F920FB60F9211242F933F934F9332
S11307605F936F937F938F939F93AF93BF93EF9315
S1130770FF93E0917600F0917700E230F10509F003
S11307800995FF91EF91BF91AF919F918F917F91C7
S11307906F915F914F913F912F910F900FBE0F90EA
S11307A01F9018951F920F920FB60F9211242F933A
S11307B03F934F935F936F937F938F939F93AF93E5
S11307C0BF93EF93FF93E0917400F0917500E230D2
S11307D0F10509F00995FF91EF91BF91AF919F91B8
S11307E08F917F916F915F914F913F912F910F90D6
S11307F00FBE0F901F9018951F920F920FB60F9275
S113080011242F933F934F935F936F937F938F9311
S11308109F93AF93BF93EF93FF93E0917200F09196
S11308207300E230F10509F00995FF91EF91BF9152
S1130830AF919F918F917F916F915F914F913F9174
S11308402F910F900FBE0F901F9018951F920F922B
S11308500FB60F9211242F933F934F935F936F938F
S11308607F938F939F93AF93BF93EF93FF93E09105
S11308707000F0917100E230F10509F00995FF91E3
S1130880EF91BF91AF919F918F917F916F915F9104
S11308904F913F912F910F900FBE0F901F9018957D
S11308A01F920F920FB60F9211242F933F934F93E1
S11308B05F936F937F938F939F93AF93BF93EF93C4
S11308C0FF93E0916E00F0916F00E230F10509F0C2
S11308D00995FF91EF91BF91AF919F918F917F9176
S11308E06F915F914F913F912F910F900FBE0F9099
S11308F01F9018951F920F920FB60F9211242F93E9
S11309003F934F935F936F937F938F939F93AF9393
S1130910BF93EF93FF93E0916C00F0916D00E23090
S1130920F10509F00995FF91EF91BF91AF919F9166
S11309308F917F916F915F914F913F912F910F9084
S11309400FBE0F901F9018951F920F920FB60F9223
S113095011242F933F934F935F936F937F938F93C0
S11309609F93AF93BF93EF93FF93E0916A00F0914D
S11309706B00E230F10509F00995FF91EF91BF9109
S1130980AF919F918F917F916F915F914F913F9123
S11309902F910F900FBE0F901F9018951F920F92DA
S11309A00FB60F9211242F933F934F935F936F933E
S11309B07F938F939F93AF93BF93EF93FF93E091B4
S11309C07C00F0917D00E230F10509F00995FF917A
S11309D0EF91BF91AF919F918F917F916F915F91B3
S11309E04F913F912F910F900FBE0F901F9018952C
S11309F01F920F920FB60F9211242F933F934F9390
S1130A005F936F937F938F939F93AF93BF93EF9372
S1130A10FF93E0917A00F0917B00E230F10509F058
S1130A200995FF91EF91BF91AF919F918F917F9124
S1130A306F915F914F913F912F910F900FBE0F9047
S1130A401F901895AA1BBB1B51E107C0AA1FBB1F0F
S1130A50A617B70710F0A61BB70B881F991F5A9546
S1130A60A9F780959095BC01CD010895F894FFCF26
S1130A700200020002000200020002000200020062
S1130A800200020002000200020002000200000054
S1130A900000000000000000000000000000000052
S1130AA00000000000000100020200020202000136
S10B0AB00203040506071011FE
S9030000FC
