:100000000C942A000C9436030C9460030C948B031C
:100010000C9412050C94E8040C94BE040C946A042D
:100020000C9494040C9440040C9416040C94EC036B
:100030000C94C2030C944D050C9447000C94770566
:100040000C9453010C9447000C9447000C94470007
:100050000C94470011241FBECFE5D8E0DEBFCDBF12
:1000600010E0A0E6B0E0E6E4FBE002C005900D92EF
:10007000AC3AB107D9F720E0ACEAB0E001C01D927C
:10008000AD3AB207E1F70E943E010C94A1050C9431
:100090000000CF93C82F60E083E00E9483026C2FA2
:1000A000661F6627661F8CE00E948302C6FB6627D8
:1000B00060F98AE00E948302C5FB662760F989E047
:1000C0000E948302C4FB662760F988E00E948302D5
:1000D00061E082E00E9483028FEC97E00197F1F7E4
:1000E00000C0000060E082E00E9483028FEC97E095
:1000F0000197F1F700C00000C3FB662760F98CE0B0
:100100000E948302C2FB662760F98AE00E94830294
:10011000C1FB662760F989E00E9483026C2F617041
:1001200088E00E94830261E082E00E9483028FECFB
:1001300097E00197F1F700C0000060E082E00E94C4
:1001400083028FEC97E00197F1F700C00000CF9198
:100150000895CF93C82F61E083E00E9483026C2F43
:10016000661F6627661F8CE00E948302C6FB662717
:1001700060F98AE00E948302C5FB662760F989E086
:100180000E948302C4FB662760F988E00E94830214
:1001900061E082E00E9483028FEC97E00197F1F723
:1001A00000C0000060E082E00E9483028FEC97E0D4
:1001B0000197F1F700C00000C3FB662760F98CE0EF
:1001C0000E948302C2FB662760F98AE00E948302D4
:1001D000C1FB662760F989E00E9483026C2F617081
:1001E00088E00E94830261E082E00E9483028FEC3B
:1001F00097E00197F1F700C0000060E082E00E9404
:1002000083028FEC97E00197F1F700C00000CF91D7
:1002100008952FE788E391E0215080409040E1F776
:1002200000C0000082E00E94490088E20E9449006C
:100230008CE00E94490081E00E9449008FEC97E029
:100240000197F1F700C0000086E00C9449000F937D
:100250001F93CF938C01C0E0F801EC0FF11D80815A
:10026000882321F00E94A900CF5FF6CFCF911F9184
:100270000F9108950E9442050C94BD030E947002E4
:100280000E9409018EE990E00E9427010E943C052E
:1002900080E00E94B50378948AE391E00E944805CB
:1002A0000E944605FFCF1F920F920FB60F921124A6
:1002B0002F933F934F935F936F937F938F939F936E
:1002C000AF93BF93EF93FF931092AC00E091600067
:1002D000F0916100E230F10509F00995FF91EF918D
:1002E000BF91AF919F918F917F916F915F914F914E
:1002F0003F912F910F900FBE0F901F901895982F40
:100300009770869586958695613009F44DC020F0EA
:10031000623009F496C008958130B1F028F082303F
:1003200019F1833089F108954AB321E030E0B90131
:1003300002C0660F771F9A95E2F7CB01942F982B96
:100340009ABB9BB3809547C047B321E030E0B90129
:1003500002C0660F771F9A95E2F7CB01942F982B76
:1003600097BB98B3809549C044B321E030E0B90110
:1003700002C0660F771F9A95E2F7CB01942F982B56
:1003800094BB95B380954AC041B321E030E0B901F8
:1003900002C0660F771F9A95E2F7CB01942F982B36
:1003A00091BB92B380954BC08130C1F028F0823070
:1003B00031F18330A9F108954AB321E030E0B90169
:1003C00002C0660F771F9A95E2F7CB018095942FB4
:1003D00098239ABB9BB389238BBB089547B321E035
:1003E00030E0B90102C0660F771F9A95E2F7CB01A2
:1003F0008095942F982397BB98B389234BC044B31F
:1004000021E030E0B90102C0660F771F9A95E2F74C
:10041000CB018095942F982394BB95B389234CC02E
:1004200041B321E030E0B90102C0660F771F9A9511
:10043000E2F7CB018095942F982391BB92B3892347
:100440004DC08130B9F028F0823031F18330B1F104
:1004500008954AB321E030E0B90102C0660F771F6A
:100460009A95E2F7CB01962F909594239ABB9BB374
:10047000892BB2CF47B321E030E0B90102C0660F4B
:10048000771F9A95E2F7CB01962F9095942397BB0F
:1004900098B3892B88BB089544B321E030E0B901BB
:1004A00002C0660F771F9A95E2F7CB01962F9095C1
:1004B000942394BB95B3892B85BB089541B321E068
:1004C00030E0B90102C0660F771F9A95E2F7CB01C1
:1004D000962F9095942391BB92B3892B82BB08955C
:1004E0000F931F93CF930EE710E0C0E0F8016191E6
:1004F0008F018C2F0E947F01CF5FC032B9F7CF915F
:100500001F910F910895982F9770869586958695DF
:10051000813089F138F0823009F456C0833009F413
:100520007CC008952AB330E0092E02C03595279586
:100530000A94E2F720FF99C0662319F0613071F048
:1005400008954BB321E030E0B90102C0660F771F78
:100550009A95E2F7CB01809584230BC04BB321E041
:1005600030E0B90102C0660F771F9A95E2F7CB0120
:10057000842B8BBB089527B330E0092E02C035953C
:1005800027950A94E2F720FF70C0662319F06130C6
:1005900071F0089548B321E030E0B90102C0660F60
:1005A000771F9A95E2F7CB01809584230BC048B35F
:1005B00021E030E0B90102C0660F771F9A95E2F79B
:1005C000CB01842B88BB089524B330E0092E02C0F0
:1005D000359527950A94E2F720FF47C0662319F066
:1005E000613071F0089545B321E030E0B90102C0F7
:1005F000660F771F9A95E2F7CB01809584230BC095
:1006000045B321E030E0B90102C0660F771F9A952B
:10061000E2F7CB01842B85BB089521B330E0092E8E
:1006200002C0359527950A94E2F720FF1EC0662385
:1006300019F0613071F0089542B321E030E0B90162
:1006400002C0660F771F9A95E2F7CB01809584234D
:100650000BC042B321E030E0B90102C0660F771F42
:100660009A95E2F7CB01842B82BB08951F920F92DB
:100670000FB60F9211242F933F934F935F936F9375
:100680007F938F939F93AF93BF93EF93FF93E091EB
:100690006600F0916700E230F10509F00995FF91DD
:1006A000EF91BF91AF919F918F917F916F915F91EA
:1006B0004F913F912F910F900FBE0F901F90189563
:1006C00078941F920F920FB60F9211242F933F939D
:1006D0004F935F936F937F938F939F93AF93BF934A
:1006E000EF93FF93E0916400F0916500E230F10533
:1006F00009F00995FF91EF91BF91AF919F918F9173
:100700007F916F915F914F913F912F910F900FBE0D
:100710000F901F9018951F920F920FB60F921124F1
:100720002F933F934F935F936F937F938F939F93F9
:10073000AF93BF93EF93FF93E0916200F09163005A
:10074000E230F10509F00995FF91EF91BF91AF916A
:100750009F918F917F916F915F914F913F912F91D9
:100760000F900FBE0F901F901895811102C06C9AC8
:1007700001C06C986E9A6F9A08958FB9779BFECFDF
:100780008FB108951F920F920FB60F9211242F93DD
:100790003F934F935F936F937F938F939F93AF9309
:1007A000BF93EF93FF93E0916800F0916900E2300E
:1007B000F10509F00995FF91EF91BF91AF919F91DC
:1007C0008F917F916F915F914F913F912F910F90FA
:1007D0000FBE0F901F9018951F920F920FB60F9299
:1007E00011242F933F934F935F936F937F938F9336
:1007F0009F93AF93BF93EF93FF93E0917800F091B5
:100800007900E230F10509F00995FF91EF91BF9170
:10081000AF919F918F917F916F915F914F913F9198
:100820002F910F900FBE0F901F9018951F920F924F
:100830000FB60F9211242F933F934F935F936F93B3
:100840007F938F939F93AF93BF93EF93FF93E09129
:100850007600F0917700E230F10509F00995FF91FB
:10086000EF91BF91AF919F918F917F916F915F9128
:100870004F913F912F910F900FBE0F901F901895A1
:100880001F920F920FB60F9211242F933F934F9305
:100890005F936F937F938F939F93AF93BF93EF93E8
:1008A000FF93E0917400F0917500E230F10509F0DA
:1008B0000995FF91EF91BF91AF919F918F917F919A
:1008C0006F915F914F913F912F910F900FBE0F90BD
:1008D0001F9018951F920F920FB60F9211242F930D
:1008E0003F934F935F936F937F938F939F93AF93B8
:1008F000BF93EF93FF93E0917200F0917300E230A9
:10090000F10509F00995FF91EF91BF91AF919F918A
:100910008F917F916F915F914F913F912F910F90A8
:100920000FBE0F901F9018951F920F920FB60F9247
:1009300011242F933F934F935F936F937F938F93E4
:100940009F93AF93BF93EF93FF93E0917000F0916B
:100950007100E230F10509F00995FF91EF91BF9127
:10096000AF919F918F917F916F915F914F913F9147
:100970002F910F900FBE0F901F9018951F920F92FE
:100980000FB60F9211242F933F934F935F936F9362
:100990007F938F939F93AF93BF93EF93FF93E091D8
:1009A0006E00F0916F00E230F10509F00995FF91BA
:1009B000EF91BF91AF919F918F917F916F915F91D7
:1009C0004F913F912F910F900FBE0F901F90189550
:1009D0001F920F920FB60F9211242F933F934F93B4
:1009E0005F936F937F938F939F93AF93BF93EF9397
:1009F000FF93E0916C00F0916D00E230F10509F099
:100A00000995FF91EF91BF91AF919F918F917F9148
:100A10006F915F914F913F912F910F900FBE0F906B
:100A20001F9018951F920F920FB60F9211242F93BB
:100A30003F934F935F936F937F938F939F93AF9366
:100A4000BF93EF93FF93E0916A00F0916B00E23067
:100A5000F10509F00995FF91EF91BF91AF919F9139
:100A60008F917F916F915F914F913F912F910F9057
:100A70000FBE0F901F90189583E389B95998549A27
:100A8000539A08955F9BFECF8CB10895579A0895AD
:100A900090937D0080937C0008951F920F920FB673
:100AA0000F9211242F933F934F935F936F937F93F4
:100AB0008F939F93AF93BF93EF93FF93E0917C004D
:100AC000F0917D00E230F10509F00995FF91EF9179
:100AD000BF91AF919F918F917F916F915F914F9156
:100AE0003F912F910F900FBE0F901F9018951F925E
:100AF0000F920FB60F9211242F933F934F935F9352
:100B00006F937F938F939F93AF93BF93EF93FF93D5
:100B1000E0917A00F0917B00E230F10509F009954F
:100B2000FF91EF91BF91AF919F918F917F916F91C5
:100B30005F914F913F912F910F900FBE0F901F909B
:060B40001895F894FFCFA8
:100B4600020002000200020002000200020002008F
:100B56000200020002000200020002000200000081
:100B6600000000000000000000000000000000007F
:100B760000000000000001000202000202024D61B6
:0C0B8600737465722048657265210000E0
:00000001FF
