:100000000C942A000C94FE040C9428050C945305BF
:100010000C9447000C9447000C9447000C94470044
:100020000C9447000C9447000C9447000C94470034
:100030000C9447000C9447000C9447000C94470024
:100040000C94FE020C9447000C9447000C9447005B
:100050000C94470011241FBECFE5D8E0DEBFCDBF12
:1000600010E0A0E6B0E0E0E8FBE002C005900D92F1
:10007000AA3AB107D9F720E0AAEAB0E001C01D9280
:10008000AD3AB207E1F70E94F6020C94BE050C945B
:100090000000CF93C5E161E08C2F0E942E04C15077
:1000A000C131C9F7CF910895CF93C82F60E083E0A5
:1000B0000E942E046C2F661F6627661F8CE00E942C
:1000C0002E04C6FB662760F98AE00E942E04C5FB59
:1000D000662760F989E00E942E04C4FB662760F958
:1000E00088E00E942E0461E082E00E942E048FECE2
:1000F00097E00197F1F700C0000060E082E00E9405
:100100002E048FEC97E00197F1F700C00000C3FBCD
:10011000662760F98CE00E942E04C2FB662760F916
:100120008AE00E942E04C1FB662760F989E00E94E4
:100130002E046C2F617088E00E942E0461E082E042
:100140000E942E048FEC97E00197F1F700C00000A9
:1001500060E082E00E942E048FEC97E00197F1F7B7
:1001600000C00000CF910895CF93C82F61E083E0D5
:100170000E942E046C2F661F6627661F8CE00E946B
:100180002E04C6FB662760F98AE00E942E04C5FB98
:10019000662760F989E00E942E04C4FB662760F997
:1001A00088E00E942E0461E082E00E942E048FEC21
:1001B00097E00197F1F700C0000060E082E00E9444
:1001C0002E048FEC97E00197F1F700C00000C3FB0D
:1001D000662760F98CE00E942E04C2FB662760F956
:1001E0008AE00E942E04C1FB662760F989E00E9424
:1001F0002E046C2F617088E00E942E0461E082E082
:100200000E942E048FEC97E00197F1F700C00000E8
:1002100060E082E00E942E048FEC97E00197F1F7F6
:1002200000C00000CF9108952FE788E391E02150AE
:1002300080409040E1F700C0000082E00E9454003E
:1002400088E20E9454008CE00E94540081E00E94E9
:1002500054008FEC97E00197F1F700C0000086E0B2
:100260000C94540081E00E9454008FEC97E00197B9
:10027000F1F700C000000895982F862F913011F4F7
:1002800080580BC0923011F4805407C0933011F4A1
:100290008C5603C0943019F48C520C945400089579
:1002A0000F931F93CF938C01C0E0F801EC0FF11D69
:1002B0008081882321F00E94B400CF5FF6CFCF91D8
:1002C0001F910F9108954F925F926F927F92AF921C
:1002D000BF92CF92DF92EF92FF921F93CF93DF9363
:1002E000CDB7DEB764970FB6F894DEBF0FBECDBFB3
:1002F0006B017C016115710581059105B1F480E305
:1003000064960FB6F894DEBF0FBECDBFDF91CF91DC
:100310001F91FF90EF90DF90CF90BF90AF907F90B4
:100320006F905F904F900C94B40097FF0BC08DE2DC
:100330000E94B400F094E094D094C094C11CD11CED
:10034000E11CF11C10E09AE0492E512C612C712C1B
:10035000AA24A394B12CAC0EBD1EA10EB11CC701E2
:10036000B601A30192010E947D05605DF5016083E5
:1003700081E0810F69017A01C114D104E104F10423
:1003800011F0182FE5CFF12EF7FC0DC0E1E0F0E001
:10039000EC0FFD1FEF0DF11DF7FCFA9580810E9417
:1003A000B400FA94F1CF64960FB6F894DEBF0FBE96
:1003B000CDBFDF91CF911F91FF90EF90DF90CF9055
:1003C000BF90AF907F906F905F904F900895CF93C4
:1003D000C82F0E94320160E084E00E943C018BE85B
:1003E00090E00E945001C13031F48091AB008F5FEA
:1003F0008093AB000EC0C23031F48091AA008F5FB1
:100400008093AA0006C0C11104C01092AB001092E4
:10041000AA006CE084E00E943C016091AB0070E0B7
:1004200080E090E00E94630163E184E00E943C016F
:100430006091AA0070E080E090E0CF910C9463019D
:100440001F93CF93DF93C82F162FD42F60E00E9405
:100450003C018FE990E00E94500163E18C2F0E94E3
:100460003C018FE990E00E945001612F8D2F0E9486
:100470003C0181EA90E0DF91CF911F910C945001F3
:1004800080E00E94E701C1E0D2E01AE001E183E1EF
:10049000F82E83E00E94E7014091620060916100C4
:1004A000809160000E94200261E085E10E942E049C
:1004B0008FE10E94E104811108C0809160009EEFED
:1004C000980F923060F581500CC08EE10E94E104DB
:1004D00081110AC0809160009FEF980F9230F8F46C
:1004E0008F5F809360001BC08DE10E94E104811149
:1004F00008C0809162009EEF980F923080F4815086
:100500000CC08BE10E94E104811109C0809162005E
:100510009FEF980F923018F48F5F80936200809164
:1005200061009EEF980F903150F4CC2321F08F5F43
:100530008093610044C081508093610041C082314A
:1005400081F44091620080916000481709F442C034
:10055000CC23B1F1F092610063E10E94200281E0BE
:1005600010C08130E9F54091620080916000481729
:1005700011F1C11124C01092610060E00E942002BC
:1005800082E00E94E70168E082E00E943C0183EA89
:1005900090E00E9450012FEF8DE399E421508040BC
:1005A0009040E1F700C00000D0936000109361001C
:1005B000D093620004C0C11102C0D0936100C1E0B9
:1005C0002FE78AE196E0215080409040E1F700C09B
:1005D00000005FCFCC23A1F300936100C0E0F0CF17
:1005E00081E0C11101C080E0C82FEACF0E941B0446
:1005F0000E9414010E9449000E9440021F920F9223
:100600000FB60F9211242F933F934F935F936F93E5
:100610007F938F939F93AF93BF93EF93FF9310922A
:10062000AC00E0916300F0916400E230F10509F064
:100630000995FF91EF91BF91AF919F918F917F911C
:100640006F915F914F913F912F910F900FBE0F903F
:100650001F901895982F977086958695869561308E
:1006600009F44DC020F0623009F496C0089581303D
:10067000B1F028F0823019F1833089F108954AB33E
:1006800021E030E0B90102C0660F771F9A95E2F7CA
:10069000CB01942F982B9ABB9BB3809547C047B34F
:1006A00021E030E0B90102C0660F771F9A95E2F7AA
:1006B000CB01942F982B97BB98B3809549C044B336
:1006C00021E030E0B90102C0660F771F9A95E2F78A
:1006D000CB01942F982B94BB95B380954AC041B31E
:1006E00021E030E0B90102C0660F771F9A95E2F76A
:1006F000CB01942F982B91BB92B380954BC0813046
:10070000C1F028F0823031F18330A9F108954AB365
:1007100021E030E0B90102C0660F771F9A95E2F739
:10072000CB018095942F98239ABB9BB389238BBBD5
:10073000089547B321E030E0B90102C0660F771F8A
:100740009A95E2F7CB018095942F982397BB98B3A5
:1007500089234BC044B321E030E0B90102C0660FE9
:10076000771F9A95E2F7CB018095942F982394BB3D
:1007700095B389234CC041B321E030E0B90102C0F8
:10078000660F771F9A95E2F7CB018095942F9823F7
:1007900091BB92B389234DC08130B9F028F08230EB
:1007A00031F18330B1F108954AB321E030E0B9016D
:1007B00002C0660F771F9A95E2F7CB01962F9095AE
:1007C00094239ABB9BB3892BB2CF47B321E030E08F
:1007D000B90102C0660F771F9A95E2F7CB01962FF9
:1007E0009095942397BB98B3892B88BB089544B305
:1007F00021E030E0B90102C0660F771F9A95E2F759
:10080000CB01962F9095942394BB95B3892B85BBF0
:10081000089541B321E030E0B90102C0660F771FAF
:100820009A95E2F7CB01962F9095942391BB92B3C2
:10083000892B82BB08950F931F93CF930BE610E093
:10084000C0E0F80161918F018C2F0E942A03CF5FD5
:10085000C032B9F7CF911F910F910895982F9770DB
:10086000869586958695813089F138F0823009F435
:1008700056C0833009F47CC008952AB330E0092EB5
:1008800002C0359527950A94E2F720FF99C06623A8
:1008900019F0613071F008954BB321E030E0B901F7
:1008A00002C0660F771F9A95E2F7CB0180958423EB
:1008B0000BC04BB321E030E0B90102C0660F771FD7
:1008C0009A95E2F7CB01842B8BBB089527B330E0D8
:1008D000092E02C0359527950A94E2F720FF70C0D3
:1008E000662319F0613071F0089548B321E030E0DB
:1008F000B90102C0660F771F9A95E2F7CB01809588
:1009000084230BC048B321E030E0B90102C0660F78
:10091000771F9A95E2F7CB01842B88BB089524B307
:1009200030E0092E02C0359527950A94E2F720FFA2
:1009300047C0662319F0613071F0089545B321E096
:1009400030E0B90102C0660F771F9A95E2F7CB013C
:10095000809584230BC045B321E030E0B90102C08B
:10096000660F771F9A95E2F7CB01842B85BB08951C
:1009700021B330E0092E02C0359527950A94E2F79D
:1009800020FF1EC0662319F0613071F0089542B354
:1009900021E030E0B90102C0660F771F9A95E2F7B7
:1009A000CB01809584230BC042B321E030E0B90134
:1009B00002C0660F771F9A95E2F7CB01842B82BBAA
:1009C0000895282F2770869586958695813049F061
:1009D00030F0823041F0833079F480B305C089B3C0
:1009E00003C086B301C083B390E002C0959587959C
:1009F0002A95E2F78170089580E008951F920F9282
:100A00000FB60F9211242F933F934F935F936F93E1
:100A10007F938F939F93AF93BF93EF93FF93E09157
:100A20006900F0916A00E230F10509F00995FF9143
:100A3000EF91BF91AF919F918F917F916F915F9156
:100A40004F913F912F910F900FBE0F901F901895CF
:100A500078941F920F920FB60F9211242F933F9309
:100A60004F935F936F937F938F939F93AF93BF93B6
:100A7000EF93FF93E0916700F0916800E230F10599
:100A800009F00995FF91EF91BF91AF919F918F91DF
:100A90007F916F915F914F913F912F910F900FBE7A
:100AA0000F901F9018951F920F920FB60F9211245E
:100AB0002F933F934F935F936F937F938F939F9366
:100AC000AF93BF93EF93FF93E0916500F0916600C1
:100AD000E230F10509F00995FF91EF91BF91AF91D7
:100AE0009F918F917F916F915F914F913F912F9146
:100AF0000F900FBE0F901F901895052E97FB1EF4B8
:100B000000940E94940557FD07D00E949C0507FCA5
:100B100003D04EF40C949405509540953095219552
:100B20003F4F4F4F5F4F0895909580957095619519
:100B30007F4F8F4F9F4F0895A1E21A2EAA1BBB1B18
:100B4000FD010DC0AA1FBB1FEE1FFF1FA217B30799
:100B5000E407F50720F0A21BB30BE40BF50B661FAF
:100B6000771F881F991F1A9469F760957095809573
:100B700090959B01AC01BD01CF010895F894FFCF82
:100B8000020A02020002000200020002000000004D
:100B90000000000000000000000000000000000055
:100BA000000000000002020002020253434F5245BF
:100BB0003D3E2050313A2020202050323A20007C07
:0A0BC000006F00474F414C21000078
:00000001FF
