S01300004E54495F447269766572732E73726563E8
S11300000C942A000C942A060C9454060C947F0633
S11300100C9435080C940B080C94E1070C948D0790
S11300200C94B7070C9463070C94FD060C94D30648
S11300300C94A9060C9469080C9447000C9493083A
S11300400C941D040C9400060C9447000C94470077
S11300500C94470011241FBECFE5D8E0DEBFCDBF0E
S113006011E0A0E6B0E0E8E2F5E102C005900D92EF
S1130070A03AB107D9F721E0A0EAB1E001C01D928E
S1130080A53CB207E1F70E94DA030C94920A0C949F
S1130090000043E160E082E00E94CA0360E082E085
S11300A00E94340384E890E00E9448034CB55DB597
S11300B08CB59DB5880F991F880F991FA0E0B0E0FB
S11300C0BA2FA92F982F882760E070E0842B952BF6
S11300D0A62BB72B8093A2019093A301A093A40114
S11300E0B093A5016091A2017091A3018091A40134
S11300F09091A5010E945B038091A2019091A301BC
S1130100A091A401B091A50120E182279227A22702
S1130110B2278093600090936100A0936200B09333
S1130120630008950895CF938091AD01873209F457
S11301304FC0813309F0ACC0C091AC01C13009F0AB
S1130140A7C08091AA019091AB0181159A4A09F048
S11301509FC08091A00143E160E0811119C084E057
S11301600E94CA0360E084E00E9434038CE890E0BB
S11301700E94480344E160E082E00E94CA0360E018
S113018082E00E9434038EE990E00E9448031CC080
S113019084E00E94CA0360E084E00E9434038CE897
S11301A090E00E94480344E160E082E00E94CA03B8
S11301B060E082E00E9434038DEA90E00E944803EC
S11301C061E080E10E944D05C093A10181E064C01B
S11301D08091AC01813019F08230A1F059C043E123
S11301E060E084E00E94CA0360E084E00E9434037B
S11301F08BEB90E00E9448030E94490082E08093C8
S1130200A1014AC08091A101823031F58091AA01F7
S11302109091AB0140916000509161006091620047
S113022070916300A0E0B0E084179507A607B707B4
S113023099F5C1E0C093A10144E160E084E00E942B
S1130240CA0360E084E00E9434038FEC90E00E94D3
S11302504803C093A001BACF44E160E082E00E9469
S1130260CA0360E082E00E9434038FED90E00E94B4
S1130270480344E160E084E00E94CA0360E084E053
S11302800E94340383EF90E00E94480382E004C09C
S11302901092A10180E000C0CF9108950F931F93A5
S11302A0CF932091A1012230E9F5009160001091D3
S11302B06100209162003091630006171707280738
S11302C0390709F5C1E0C093A10144E160E084E08D
S11302D00E94CA0360E084E00E94340388E091E055
S11302E00E94480344E160E082E00E94CA0360E0A7
S11302F082E00E9434038AE191E00E944803C093A3
S1130300A00181E01DC044E160E084E00E94CA03D2
S113031060E084E00E9434038FE291E00E9448038D
S113032080E00EC044E160E084E00E94CA0360E023
S113033084E00E9434038EE391E00E94480382E04B
S1130340CF911F910F9108950F931F93CF93DF9334
S1130350CDB7DEB72F970FB6F894DEBF0FBECDBF73
S11303608C018091A101813021F08091A101811142
S11303703DC042E050E0B801CE010D960E942E0A25
S11303801F86B8016E5F7F4F42E050E0CE010A96AF
S11303900E942E0A1C86B8016C5F7F4F44E050E037
S11303A0CE0101960E942E0A1D8240E150E060E0D9
S11303B070E0CE010D960E940F096093AD0140E1FB
S11303C050E060E070E0CE010A960E940F0960934D
S11303D0AC0140E150E060E070E0CE0101960E9483
S11303E00F097093AB016093AA014FC08091A101E2
S11303F0823009F04AC042E050E0B801CE010D96C7
S11304000E942E0A1F86B8016E5F7F4F42E050E0C3
S1130410CE010A960E942E0A1C86B8016C5F7F4F9B
S113042048E050E0CE0101960E942E0A198640E170
S113043050E060E070E0CE010D960E940F096093D9
S1130440AD0140E150E060E070E0CE010A960E9408
S11304500F096093AC0140E150E060E070E0CE0130
S113046001960E940F096093A6017093A7018093DF
S1130470A8019093A9016091A6017091A7018091B0
S1130480A8019091A9010E944E012F960FB6F894ED
S1130490DEBF0FBECDBFDF91CF911F910F910895A5
S11304A08091A00108958091A1010895CF93C82F50
S11304B060E083E00E944D056C2F661F6627661F6F
S11304C08CE00E944D05C6FB662760F98AE00E9415
S11304D04D05C5FB662760F989E00E944D05C4FB04
S11304E0662760F988E00E944D0561E082E00E9481
S11304F04D058FEC97E00197F1F700C0000060E034
S113050082E00E944D058FEC97E00197F1F700C05F
S11305100000C3FB662760F98CE00E944D05C2FB16
S1130520662760F98AE00E944D05C1FB662760F9E1
S113053089E00E944D056C2F617088E00E944D0592
S113054061E082E00E944D058FEC97E00197F1F79E
S113055000C0000060E082E00E944D058FEC97E04F
S11305600197F1F700C00000CF910895CF93C82FF1
S113057061E083E00E944D056C2F661F6627661FAD
S11305808CE00E944D05C6FB662760F98AE00E9454
S11305904D05C5FB662760F989E00E944D05C4FB43
S11305A0662760F988E00E944D0561E082E00E94C0
S11305B04D058FEC97E00197F1F700C0000060E073
S11305C082E00E944D058FEC97E00197F1F700C09F
S11305D00000C3FB662760F98CE00E944D05C2FB56
S11305E0662760F98AE00E944D05C1FB662760F921
S11305F089E00E944D056C2F617088E00E944D05D2
S113060061E082E00E944D058FEC97E00197F1F7DD
S113061000C0000060E082E00E944D058FEC97E08E
S11306200197F1F700C00000CF9108952FE788E308
S113063091E0215080409040E1F700C0000082E04A
S11306400E94560288E20E9456028CE00E945602E2
S113065081E00E9456028FEC97E00197F1F700C009
S1130660000086E00C945602982F862F913011F4E6
S113067080580BC0923011F4805407C0933011F4A9
S11306808C5603C0943019F48C520C94560208957D
S11306900F931F93CF938C01C0E0F801EC0FF11D71
S11306A08081882321F00E94B602CF5FF6CFCF91DC
S11306B01F910F910895CF92DF92EF92FF921F93B3
S11306C0CF93DF93CDB7DEB72B970FB6F894DEBF89
S11306D00FBECDBF40E05AE0152F141B6B017C0107
S11306E02FE0C222DD24EE24FF24212F30E0EAE0B3
S11306F0CE16D104E104F10440F0E1E0F0E0EC0FA7
S1130700FD1FE20FF31F27E307C0E1E0F0E0EC0F69
S1130710FD1FE20FF31F20E32C0D208324E09695A8
S11307208795779567952A95D1F74F5F6115710580
S11307308105910539F4D12C88E090E07C01E41A1C
S1130740F10804C04B3041F610E00AC08D2D90E052
S11307508E159F052CF480E30E94B602D394F6CF45
S1130760E1E0F0E0EC0FFD1FE10FF11D80810E943C
S1130770B6021F5F1B30A1F72B960FB6F894DEBFAD
S11307800FBECDBFDF91CF911F91FF90EF90DF900F
S1130790CF900895CF93DF93D42F0E943403C0E009
S11307A0CD1729F080E20E94B602CF5FF9CFDF9126
S11307B0CF9108950E943A050E9416030E945F0893
S11307C00E94920063E080E00E94270781E791E0A5
S11307D00E94480360E083E00E9434038FE791E0C5
S11307E00E9448038AEB91E00E94BD088AEB91E0E5
S11307F00E94A4010E9493000E945302811118C018
S113080043E160E084E00E94CA0360E084E00E9467
S113081034038CE891E0E4CF8EEA91E00E94BD08B5
S11308208EEA91E00E94A4010E9450028130D1F22C
S11308300E945302823081F3D5CF1F920F920FB6DC
S11308400F9211242F933F934F935F936F937F9352
S11308508F939F93AF93BF93EF93FF931092C20133
S1130860E0916400F0916500E230F10509F009952A
S1130870FF91EF91BF91AF919F918F917F916F9174
S11308805F914F913F912F910F900FBE0F901F904A
S11308901895982F9770869586958695613009F4FA
S11308A04DC020F0623009F496C008958130B1F053
S11308B028F0823019F1833089F108954AB321E098
S11308C030E0B90102C0660F771F9A95E2F7CB01B9
S11308D0942F982B9ABB9BB3809547C047B321E0D4
S11308E030E0B90102C0660F771F9A95E2F7CB0199
S11308F0942F982B97BB98B3809549C044B321E0BB
S113090030E0B90102C0660F771F9A95E2F7CB0178
S1130910942F982B94BB95B380954AC041B321E0A2
S113092030E0B90102C0660F771F9A95E2F7CB0158
S1130930942F982B91BB92B380954BC08130C1F01A
S113094028F0823031F18330A9F108954AB321E0CF
S113095030E0B90102C0660F771F9A95E2F7CB0128
S11309608095942F98239ABB9BB389238BBB0895BE
S113097047B321E030E0B90102C0660F771F9A95B2
S1130980E2F7CB018095942F982397BB98B38923E2
S11309904BC044B321E030E0B90102C0660F771FB9
S11309A09A95E2F7CB018095942F982394BB95B345
S11309B089234CC041B321E030E0B90102C0660F85
S11309C0771F9A95E2F7CB018095942F982391BBDA
S11309D092B389234DC08130B9F028F0823031F1CF
S11309E08330B1F108954AB321E030E0B90102C087
S11309F0660F771F9A95E2F7CB01962F9095942373
S1130A009ABB9BB3892BB2CF47B321E030E0B90145
S1130A1002C0660F771F9A95E2F7CB01962F909547
S1130A20942397BB98B3892B88BB089544B321E0E2
S1130A3030E0B90102C0660F771F9A95E2F7CB0147
S1130A40962F9095942394BB95B3892B85BB0895D9
S1130A5041B321E030E0B90102C0660F771F9A95D7
S1130A60E2F7CB01962F9095942391BB92B3892BF7
S1130A7082BB08950F931F93CF9301E511E0C0E06B
S1130A80F80161918F018C2F0E944904CF5FC0321D
S1130A90B9F7CF911F910F910895982F977086956C
S1130AA086958695813089F138F0823009F456C0F4
S1130AB0833009F47CC008952AB330E0092E02C0C3
S1130AC0359527950A94E2F720FF99C0662319F01B
S1130AD0613071F008954BB321E030E0B90102C0F8
S1130AE0660F771F9A95E2F7CB01809584230BC09C
S1130AF04BB321E030E0B90102C0660F771F9A952D
S1130B00E2F7CB01842B8BBB089527B330E0092E89
S1130B1002C0359527950A94E2F720FF70C066233A
S1130B2019F0613071F0089548B321E030E0B90163
S1130B3002C0660F771F9A95E2F7CB018095842354
S1130B400BC048B321E030E0B90102C0660F771F43
S1130B509A95E2F7CB01842B88BB089524B330E047
S1130B60092E02C0359527950A94E2F720FF47C065
S1130B70662319F0613071F0089545B321E030E047
S1130B80B90102C0660F771F9A95E2F7CB018095F1
S1130B9084230BC045B321E030E0B90102C0660FE5
S1130BA0771F9A95E2F7CB01842B85BB089521B377
S1130BB030E0092E02C0359527950A94E2F720FF0C
S1130BC01EC0662319F0613071F0089542B321E02C
S1130BD030E0B90102C0660F771F9A95E2F7CB01A6
S1130BE0809584230BC042B321E030E0B90102C0F8
S1130BF0660F771F9A95E2F7CB01842B82BB089589
S1130C001F920F920FB60F9211242F933F934F937D
S1130C105F936F937F938F939F93AF93BF93EF9360
S1130C20FF93E0916600F0916700E230F10509F06E
S1130C300995FF91EF91BF91AF919F918F917F9112
S1130C406F915F914F913F912F910F900FBE0F9035
S1130C501F9018951F920F920FB60F9211242F9385
S1130C603F934F935F936F937F938F939F93AF9330
S1130C70BF93EF93FF93E0916C00F0916D00E2302D
S1130C80F10509F00995FF91EF91BF91AF919F9103
S1130C908F917F916F915F914F913F912F910F9021
S1130CA00FBE0F901F90189578941F920F920FB655
S1130CB00F9211242F933F934F935F936F937F93DE
S1130CC08F939F93AF93BF93EF93FF93E0916A0049
S1130CD0F0916B00E230F10509F00995FF91EF9175
S1130CE0BF91AF919F918F917F916F915F914F9140
S1130CF03F912F910F900FBE0F901F9018951F9248
S1130D000F920FB60F9211242F933F934F935F933B
S1130D106F937F938F939F93AF93BF93EF93FF93BF
S1130D20E0916800F0916900E230F10509F009955D
S1130D30FF91EF91BF91AF919F918F917F916F91AF
S1130D405F914F913F912F910F900FBE0F901F9085
S1130D5018951F920F920FB60F9211242F933F9361
S1130D604F935F936F937F938F939F93AF93BF93AF
S1130D70EF93FF93E0916E00F0916F00E230F10584
S1130D8009F00995FF91EF91BF91AF919F918F91D8
S1130D907F916F915F914F913F912F910F900FBE73
S1130DA00F901F9018951F920F920FB60F92112457
S1130DB02F933F934F935F936F937F938F939F935F
S1130DC0AF93BF93EF93FF93E0917E00F0917F0088
S1130DD0E230F10509F00995FF91EF91BF91AF91D0
S1130DE09F918F917F916F915F914F913F912F913F
S1130DF00F900FBE0F901F9018951F920F920FB671
S1130E000F9211242F933F934F935F936F937F938C
S1130E108F939F93AF93BF93EF93FF93E0917C00E5
S1130E20F0917D00E230F10509F00995FF91EF9111
S1130E30BF91AF919F918F917F916F915F914F91EE
S1130E403F912F910F900FBE0F901F9018958230F5
S1130E50D9F050F4882379F0813071F58FB58E7F05
S1130E608FBD8FB58D7F21C08330D1F0843021F5C3
S1130E708FB5816017C08FB58E7F8FBD8FB58D7F85
S1130E808FBD8EB5877F08C08FB58E7F8FBD8FB520
S1130E908D7F8FBD8EB588608EBD8EB58F7E0BC065
S1130EA08FB58E7F8FBD8FB582608FBD8EB5886004
S1130EB08EBD8EB580618EBD8EB5887F8EBD8EB59C
S1130EC0682B6EBD08951F920F920FB60F921124D6
S1130ED02F933F934F935F936F937F938F939F933E
S1130EE0AF93BF93EF93FF93E0917A00F0917B006F
S1130EF0E230F10509F00995FF91EF91BF91AF91AF
S1130F009F918F917F916F915F914F913F912F911D
S1130F100F900FBE0F901F9018951F920F920FB64F
S1130F200F9211242F933F934F935F936F937F936B
S1130F308F939F93AF93BF93EF93FF93E0917800C8
S1130F40F0917900E230F10509F00995FF91EF91F4
S1130F50BF91AF919F918F917F916F915F914F91CD
S1130F603F912F910F900FBE0F901F9018951F92D5
S1130F700F920FB60F9211242F933F934F935F93C9
S1130F806F937F938F939F93AF93BF93EF93FF934D
S1130F90E0917600F0917700E230F10509F00995CF
S1130FA0FF91EF91BF91AF919F918F917F916F913D
S1130FB05F914F913F912F910F900FBE0F901F9013
S1130FC018951F920F920FB60F9211242F933F93EF
S1130FD04F935F936F937F938F939F93AF93BF933D
S1130FE0EF93FF93E0917400F0917500E230F10506
S1130FF009F00995FF91EF91BF91AF919F918F9166
S11310007F916F915F914F913F912F910F900FBE00
S11310100F901F9018951F920F920FB60F921124E4
S11310202F933F934F935F936F937F938F939F93EC
S1131030AF93BF93EF93FF93E0917200F09173002D
S1131040E230F10509F00995FF91EF91BF91AF915D
S11310509F918F917F916F915F914F913F912F91CC
S11310600F900FBE0F901F9018951F920F920FB6FE
S11310700F9211242F933F934F935F936F937F931A
S11310808F939F93AF93BF93EF93FF93E09170007F
S1131090F0917100E230F10509F00995FF91EF91AB
S11310A0BF91AF919F918F917F916F915F914F917C
S11310B03F912F910F900FBE0F901F90189583E3CF
S11310C089B95998549A539A08955F9BFECF8CB16D
S11310D008951F920F920FB60F9211242F933F93EE
S11310E04F935F936F937F938F939F93AF93BF932C
S11310F0EF93FF93E0918200F0918300E230F105D9
S113110009F00995FF91EF91BF91AF919F918F9154
S11311107F916F915F914F913F912F910F900FBEEF
S11311200F901F9018951F920F920FB60F921124D3
S11311302F933F934F935F936F937F938F939F93DB
S1131140AF93BF93EF93FF93E0918000F091810000
S1131150E230F10509F00995FF91EF91BF91AF914C
S11311609F918F917F916F915F914F913F912F91BB
S11311700F900FBE0F901F901895EF92FF920F9350
S11311801F93CF938C010E946508F8018083C0E00F
S1131190F801EC0FF11D80818D3049F0CF5F7801AB
S11311A0EC0EF11C0E946508F7018083F1CF1082D8
S11311B0CF911F910F91FF90EF900895A1E21A2E05
S11311C0AA1BBB1BFD010DC0AA1FBB1FEE1FFF1FE7
S11311D0A217B307E407F50720F0A21BB30BE40B37
S11311E0F50B661F771F881F991F1A9469F760957E
S11311F07095809590959B01AC01BD01CF01089538
S1131200A29FB001B39FC001A39F700D811D112443
S1131210911DB29F700D811D1124911D0895A0E0B0
S1131220B0E0E5E1F9E00C945C0A5C016B017A0141
S11312306115710519F0FB0191838083E114F104B8
S113124029F0C7010297839708F0E5C0E5012196CC
S1131250F5011081812F90E00E94250A892B11F05D
S11312605E01F4CF1D3229F42196F501118101E0CC
S113127007C01B3221F4E5012296F501118100E03B
S1131280E114F10409F1F0E1EF16F10429F43FC08F
S113129010E3E114F10421F128E0E216F10401F174
S11312A054F4E2E0EE16F10421F5812C912CA12CEA
S11312B0B0E4BB2E3EC0FAE0EF16F10439F020E1B1
S11312C0E216F104B1F430C0103319F1FAE0EF2E54
S11312D0F12CACEC8A2E982CA82CACE0BA2E29C0A8
S11312E078E0E72EF12C812C912CA12CE0E1BE2E8C
S11312F020C060E070E080E090E897010F2C000CC3
S1131300440B550B0E94DE0849015A0112C01033E8
S113131059F488818F7D883509F0BACF19812296D6
S1131320026080E1E82EF12C812C912CA12C68E044
S1131330B62E40E060E070E0CB0127010F2C000CDA
S113134066087708FE0150ED352E310E29E023158D
S113135070F42FEB210F2A3118F439EC332E06C028
S11313602FE9210F2A3118F529EA322E310E232DC7
S113137030E02E153F05DCF447FD16C086169706AF
S1131380A806B90670F0A30192010E94400A630DF9
S1131390711D811D911D61307105810520E8920741
S11313A010F04FEF01C041E021961081CBCF202FE8
S11313B02170C114D10471F0442329F02197F6015E
S11313C0D183C08307C001FF19C02297F601D183DE
S11313D0C08314C047FF12C0222329F060E070E0EC
S11313E080E090E804C06FEF7FEF8FEF9FE722E289
S11313F030E03093C4012093C30109C0222381F05B
S113140090958095709561957F4F8F4F9F4F462F94
S1131410372F282F12C040E030E020E090E00DC0CC
S113142097FFF5CF82E290E09093C4018093C301CB
S11314306FEF7FEF8FEF9FE7EACF642F732F822F39
S1131440CDB7DEB7E1E10C94780A91110C943D0A12
S1131450803219F089508550C8F70895FB01DC01EA
S11314604150504048F001900D920020C9F701C04E
S11314701D9241505040E0F7089599278827089518
S1131480DB018F939F930E94500ABF91AF91A29F5B
S1131490800D911DA39F900DB29F900D112408956E
S11314A00E940009A59F900DB49F900DA49F800DEC
S11314B0911D112408952F923F924F925F926F9243
S11314C07F928F929F92AF92BF92CF92DF92EF92D0
S11314D0FF920F931F93CF93DF93CDB7DEB7CA1B51
S11314E0DB0B0FB6F894DEBF0FBECDBF09942A887C
S11314F0398848885F846E847D848C849B84AA8424
S1131500B984C884DF80EE80FD800C811B81AA81B0
S1131510B981CE0FD11D0FB6F894DEBF0FBECDBF7B
S10B1520ED010895F894FFCFDA
S1131528FFFF0F0002000200020002000200020096
S1131538020002000200020002000200020002008F
S11315480200020062797465733A2000526571756D
S113155865737420746F204F4E204C4544004E52DE
S113156843202837462033312033352900283731A2
S113157820303120414120303029004163636573B4
S113158873207265717565737465642E2E2E00411F
S11315986363657373206772616E7465642E00619A
S11315A8736B20666F722072657175657374203170
S11315B87374006368636B20656E63727970746515
S11315C86420627974657300456E6372797074651A
S11315D864203420627974657300416363657373AE
S11315E8206772616E746564283637303229004E7C
S11315F85243202837462032372033352900526594
S113160871756573742041636365737320317374F2
S113161800000000000000000000000000000000BE
S113162800000000000000000001000202000202A5
S1131638024D4320526573706F6E73653A20004DF6
S11316484320526563656976653A20004661696C92
S113165865642E2E2E2054727920616761696E00AC
S9030000FC
