S01300004E54495F447269766572732E73726563E8
S11300000C942A000C9447000C9447000C9447006D
S11300100C946A050C9440050C9416050C94C204C7
S11300200C94EC040C9498040C9429040C94FF0391
S11300300C9447000C9447000C9447000C94470020
S11300400C9447000C9447000C9447000C94470010
S11300500C94470011241FBECFE5D8E0DEBFCDBF0E
S113006010E0A0E6B0E0E8E8FDE002C005900D92E3
S1130070A23BB107D9F720E0A2EBB0E001C01D928A
S1130080AF3CB207E1F70E94FD010C94C2060C9448
S11300900000CF93C82F60E083E00E940D036C2F13
S11300A0661F6627661F8CE00E940D03C6FB662749
S11300B060F98AE00E940D03C5FB662760F989E0B8
S11300C00E940D03C4FB662760F988E00E940D03BB
S11300D061E082E00E940D038FEC97E00197F1F755
S11300E000C0000060E082E00E940D038FEC97E006
S11300F00197F1F700C00000C3FB662760F98CE0AC
S11301000E940D03C2FB662760F98AE00E940D037A
S1130110C1FB662760F989E00E940D036C2F6170B2
S113012088E00E940D0361E082E00E940D038FECE1
S113013097E00197F1F700C0000060E082E00E94C0
S11301400D038FEC97E00197F1F700C00000CF9109
S11301500895CF93C82F61E083E00E940D036C2FB4
S1130160661F6627661F8CE00E940D03C6FB662788
S113017060F98AE00E940D03C5FB662760F989E0F7
S11301800E940D03C4FB662760F988E00E940D03FA
S113019061E082E00E940D038FEC97E00197F1F794
S11301A000C0000060E082E00E940D038FEC97E045
S11301B00197F1F700C00000C3FB662760F98CE0EB
S11301C00E940D03C2FB662760F98AE00E940D03BA
S11301D0C1FB662760F989E00E940D036C2F6170F2
S11301E088E00E940D0361E082E00E940D038FEC21
S11301F097E00197F1F700C0000060E082E00E9400
S11302000D038FEC97E00197F1F700C00000CF9148
S113021008952FE788E391E0215080409040E1F772
S113022000C0000082E00E94490088E20E94490068
S11302308CE00E94490081E00E9449008FEC97E025
S11302400197F1F700C0000086E00C944900982F54
S1130250862F913011F480580BC0923011F48054E1
S113026007C0933011F48C5603C0943019F48C52A7
S11302700C94490008950F931F93CF938C01C0E011
S1130280F801EC0FF11D8081882321F00E94A90060
S1130290CF5FF6CFCF911F910F9108958F929F92C8
S11302A0AF92BF92EF92FF921F93CF93DF93CDB79C
S11302B0DEB764970FB6F894DEBF0FBECDBF6115ED
S11302C071058105910591F480E364960FB6F89465
S11302D0DEBF0FBECDBFDF91CF911F91FF90EF9096
S11302E0BF90AF909F908F900C94A90010E03AE0DB
S11302F0832E912CA12CB12CEE24E394F12CEC0E42
S1130300FD1EE10EF11CA50194010E94A006605D92
S1130310F7016083E1E0E10FB901CA0161157105DC
S11303208105910511F01E2FE7CF17FD0DC0E1E007
S1130330F0E0EC0FFD1FE10FF11D17FDFA95808130
S11303400E94A9001150F1CF64960FB6F894DEBF55
S11303500FBECDBFDF91CF911F91FF90EF90BF9063
S1130360AF909F908F900895CF93DF93D42F0E94E6
S11303702701C0E0CD1729F080E20E94A900CF5FD9
S1130380F9CFDF91CF9108950E94B5050C94CB0568
S11303900E94FA0260E080E10E94090260E081E1CB
S11303A00E94090260E080E10E940D0360E081E1A7
S11303B00E940D030E94090182E990E00E943B0122
S11303C060E082E00E9427018CE990E00C943B01FC
S11303D020E041E061E08DE096E00E94940524E095
S11303E041E062E082EF95E00E94940520E041E064
S11303F063E088E296E00C9494050E94C8010E9490
S1130400E80164EC71E081E090E00E947106789468
S1130410FFCF982F9770869586958695613009F45D
S11304204DC020F0623009F496C008958130B1F0D7
S113043028F0823019F1833089F108954AB321E01C
S113044030E0B90102C0660F771F9A95E2F7CB013D
S1130450942F982B9ABB9BB3809547C047B321E058
S113046030E0B90102C0660F771F9A95E2F7CB011D
S1130470942F982B97BB98B3809549C044B321E03F
S113048030E0B90102C0660F771F9A95E2F7CB01FD
S1130490942F982B94BB95B380954AC041B321E027
S11304A030E0B90102C0660F771F9A95E2F7CB01DD
S11304B0942F982B91BB92B380954BC08130C1F09F
S11304C028F0823031F18330A9F108954AB321E054
S11304D030E0B90102C0660F771F9A95E2F7CB01AD
S11304E08095942F98239ABB9BB389238BBB089543
S11304F047B321E030E0B90102C0660F771F9A9537
S1130500E2F7CB018095942F982397BB98B3892366
S11305104BC044B321E030E0B90102C0660F771F3D
S11305209A95E2F7CB018095942F982394BB95B3C9
S113053089234CC041B321E030E0B90102C0660F09
S1130540771F9A95E2F7CB018095942F982391BB5E
S113055092B389234DC08130B9F028F0823031F153
S11305608330B1F108954AB321E030E0B90102C00B
S1130570660F771F9A95E2F7CB01962F90959423F7
S11305809ABB9BB3892BB2CF47B321E030E0B901CA
S113059002C0660F771F9A95E2F7CB01962F9095CC
S11305A0942397BB98B3892B88BB089544B321E067
S11305B030E0B90102C0660F771F9A95E2F7CB01CC
S11305C0962F9095942394BB95B3892B85BB08955E
S11305D041B321E030E0B90102C0660F771F9A955C
S11305E0E2F7CB01962F9095942391BB92B3892B7C
S11305F082BB08950F931F93CF9302E710E0C0E0EE
S1130600F80161918F018C2F0E940902CF5FC032E3
S1130610B9F7CF911F910F910895982F97708695F0
S113062086958695813089F138F0823009F456C078
S1130630833009F47CC008952AB330E0092E02C047
S1130640359527950A94E2F720FF99C0662319F09F
S1130650613071F008954BB321E030E0B90102C07C
S1130660660F771F9A95E2F7CB01809584230BC020
S11306704BB321E030E0B90102C0660F771F9A95B1
S1130680E2F7CB01842B8BBB089527B330E0092E0E
S113069002C0359527950A94E2F720FF70C06623BF
S11306A019F0613071F0089548B321E030E0B901E8
S11306B002C0660F771F9A95E2F7CB0180958423D9
S11306C00BC048B321E030E0B90102C0660F771FC8
S11306D09A95E2F7CB01842B88BB089524B330E0CC
S11306E0092E02C0359527950A94E2F720FF47C0EA
S11306F0662319F0613071F0089545B321E030E0CC
S1130700B90102C0660F771F9A95E2F7CB01809575
S113071084230BC045B321E030E0B90102C0660F69
S1130720771F9A95E2F7CB01842B85BB089521B3FB
S113073030E0092E02C0359527950A94E2F720FF90
S11307401EC0662319F0613071F0089542B321E0B0
S113075030E0B90102C0660F771F9A95E2F7CB012A
S1130760809584230BC042B321E030E0B90102C07C
S1130770660F771F9A95E2F7CB01842B82BB08950D
S1130780282F2770869586958695813049F030F01C
S1130790823041F0833079F480B305C089B303C05B
S11307A086B301C083B390E002C0959587952A95DE
S11307B0E2F78170089580E00895982F9770282FAC
S11307C02695269526952130A1F028F0223099F01F
S11307D0233099F008952BB330E002C03595279566
S11307E09A95E2F720FF02C060E001C061E00C943A
S11307F00D0328B3F1CF25B3EFCF22B3EDCF1F9272
S11308000F920FB60F9211242F933F934F935F9340
S11308106F937F938F939F93AF93BF93EF93FF93C4
S1130820E0916E00F0916F00E230F10509F0099556
S1130830FF91EF91BF91AF919F918F917F916F91B4
S11308405F914F913F912F910F900FBE0F901F908A
S113085018951F920F920FB60F9211242F933F9366
S11308604F935F936F937F938F939F93AF93BF93B4
S1130870EF93FF93E0916C00F0916D00E230F1058D
S113088009F00995FF91EF91BF91AF919F918F91DD
S11308907F916F915F914F913F912F910F900FBE78
S11308A00F901F9018958230D9F050F4882379F076
S11308B0813071F58FB58E7F8FBD8FB58D7F21C04F
S11308C08330D1F0843021F58FB5816017C08FB5A6
S11308D08E7F8FBD8FB58D7F8FBD8EB5877F08C00E
S11308E08FB58E7F8FBD8FB58D7F8FBD8EB58860A0
S11308F08EBD8EB58F7E0BC08FB58E7F8FBD8FB5AD
S113090082608FBD8EB588608EBD8EB580618EBDD0
S11309108EB5887F8EBD8EB5682B6EBD089589B760
S1130920806189BF08959093690080936800089559
S11309301F920F920FB60F9211242F933F934F9350
S11309405F936F937F938F939F93AF93BF93EF9333
S1130950FF93E0916A00F0916B00E230F10509F039
S11309600995FF91EF91BF91AF919F918F917F91E5
S11309706F915F914F913F912F910F900FBE0F9008
S11309801F9018951F920F920FB60F9211242F9358
S11309903F934F935F936F937F938F939F93AF9303
S11309A0BF93EF93FF93E0916800F0916900E23008
S11309B0F10509F00995FF91EF91BF91AF919F91D6
S11309C08F917F916F915F914F913F912F910F90F4
S11309D00FBE0F901F9018951F920F920FB60F9293
S11309E011242F933F934F935F936F937F938F9330
S11309F09F93AF93BF93EF93FF93E0916600F091C1
S1130A006700E230F10509F00995FF91EF91BF917C
S1130A10AF919F918F917F916F915F914F913F9192
S1130A202F910F900FBE0F901F9018951F920F9249
S1130A300FB60F9211242F933F934F935F936F93AD
S1130A407F938F939F93AF93BF93EF93FF93E09123
S1130A506400F0916500E230F10509F00995FF9119
S1130A60EF91BF91AF919F918F917F916F915F9122
S1130A704F913F912F910F900FBE0F901F9018959B
S1130A801F920F920FB60F9211242F933F934F93FF
S1130A905F936F937F938F939F93AF93BF93EF93E2
S1130AA0FF93E0916200F0916300E230F10509F0F8
S1130AB00995FF91EF91BF91AF919F918F917F9194
S1130AC06F915F914F913F912F910F900FBE0F90B7
S1130AD01F9018951F920F920FB60F9211242F9307
S1130AE03F934F935F936F937F938F939F93AF93B2
S1130AF0BF93EF93FF93E0916000F0916100E230C7
S1130B00F10509F00995FF91EF91BF91AF919F9184
S1130B108F917F916F915F914F913F912F910F90A2
S1130B200FBE0F901F901895DC010297C1F09091B1
S1130B30B2009330B0F46730B0F486E0989FF001CF
S1130B401124ED54FF4FB183A0836383428381E07A
S1130B50848325839F5F9093B20080E0089583E0AF
S1130B60089582E0089581E008952091B200E3EBB6
S1130B70F0E090E032E041E0921761F0848153812B
S1130B80851718F03283448302C08F5F84839F5F8C
S1130B903696F2CF0895FF920F931F93CF93DF936E
S1130BA010E006E0FF24F3948091B2001817A0F43B
S1130BB0019FE0011124CD54DF4F8A81823051F42A
S1130BC08D81882319F081508D8304C0E881F981D7
S1130BD00995FA821F5FE8CFDF91CF911F910F91A2
S1130BE0FF90089580E10E94DD0344E060E083E02B
S1130BF00E94B40180E10E94C00360E0882331F0C8
S1130C0083E00E9427018AEA90E005C083E00E9405
S1130C1027018DEA90E00C943B0145E06AE081E015
S1130C200E94B4016AE081E00E9427016091700093
S1130C307091710080E090E00E944E0180917000FC
S1130C4090917100019690937100809370000895C3
S1130C5081E10E94DD0344E06AE083E00E94B40184
S1130C6081E10E94C0036AE0882331F083E00E949E
S1130C7027018AEA90E005C083E00E9427018DEAFB
S1130C8090E00C943B018091C5009091C600A09126
S1130C90C700B091C8000196A11DB11D8093C50085
S1130CA09093C600A093C700B093C8004091CB00B6
S1130CB05091CC006091CD007091CE0084179507BF
S1130CC0A607B70769F41092C5001092C6001092E7
S1130CD0C7001092C800E091C900F091CA000994BD
S1130CE008950F931F93CF93DF938C01EB0162E080
S1130CF082E00E94530487EE93E09BBD8ABD28EEF8
S1130D0033E0029FC001039F900D129F900D1124A8
S1130D10A0E0B0E08093CB009093CC00A093CD00F2
S1130D20B093CE00D093CA00C093C90083E496E088
S1130D300E949304DF91CF911F910F910C948F0423
S1130D40A1E21A2EAA1BBB1BFD010DC0AA1FBB1FCB
S1130D50EE1FFF1FA217B307E407F50720F0A21B3D
S1130D60B30BE40BF50B661F771F881F991F1A94AA
S1130D7069F760957095809590959B01AC01BD01D4
S10B0D80CF010895F894FFCFA0
S1130D880200020002000200020002000200020047
S1130D980100000000000000000000000000000046
S1130DA80000000000000000000001000202000230
S1130DB802025365636F6E64733A2000424C5545D2
S1130DC8202020202020524544004F4E004F464604
S1050DD8000015
S9030000FC
