:100000000C942A000C942A060C9454060C947F0637
:100010000C9447000C9447000C9447000C94470044
:100020000C9447000C9447000C9447000C94470034
:100030000C9447000C9447000C9447000C94470024
:100040000C942A040C9447000C9447000C9447002D
:100050000C94470011241FBECFE5D8E0DEBFCDBF12
:1000600010E0A0E6B0E0E8E2FEE002C005900D92EC
:10007000A63BB107D9F720E0A6EBB0E001C01D9286
:10008000A53DB207E1F70E941F040C9412070C94DF
:1000900000000E9468038CE790E00E94880360E003
:1000A00082E00C947203E0ECF0E01192119280E097
:1000B000E03DF807D1F7E9EBF0E080EC90E0119239
:1000C0008E179F07E1F71092D0001092D100109286
:1000D000D2001092D3000E94680360E081E00E9489
:1000E00072038CE790E00E94880360E082E00E9447
:1000F00072031092B8001092B7001092B6000895E3
:100100008F929F92AF92BF92CF92DF92EF92FF9227
:100110000F931F93CF93DF930E944002843509F41D
:1001200097C18D3209F450C0E8F49091B8008A323A
:1001300009F45BC08B3209F066C12091B700E22F51
:10014000F0E0E754FF4F80832F5F2093B7009F5F5D
:100150009093B8008BE20E9486038FE39CE901979D
:10016000F1F774C18D3309F45AC08334F9F08F323A
:1001700009F049C19091B700E92FF0E0E754FF4F33
:1001800080839F5F9093B7008091B6008F5F8093CC
:10019000B6008091B8008F5F8093B8008FE20E9414
:1001A0008603EFE3FCE93197F1F750C1DF91CF917E
:1001B0001F910F91FF90EF90DF90CF90BF90AF9085
:1001C0009F908F900C9453009091B700E92FF0E02E
:1001D000E754FF4F80839F5F9093B7008091B800F2
:1001E0008F5F8093B8008DE22BC12091B700E22F82
:1001F000F0E0E754FF4F80832F5F2093B70080919A
:10020000B6008F5F8093B6009F5F9093B8008AE23C
:100210000E948603CFE3DCE92197F1F717C19090A4
:10022000B800992009F414C18090B700882009F41F
:100230000FC1B090B600E2E5CE2ED12CBB2009F460
:100240005BC099EBE92E90E0F92E00EC10E0E0E0C5
:10025000F0E0E81508F04EC0D7015C915A3219F071
:100260005F3209F040C040E09F01241B3109220F9A
:10027000331FD901A054BF4F8D919C9182359105B8
:1002800011F44F5FF1CFAA24A394DF01AA0DB11D91
:10029000AA0FBB1FA054BF4F6D917C9162357105B1
:1002A00011F4A394F2CF5A3259F4869FE001879F4C
:1002B000D00D969FD00D1124D801CD93DC9305C0AD
:1002C0000E94BD06E80179836883D8011396DC9209
:1002D000CE921297442329F0D901A054BF4FCD925A
:1002E000DC92E70118823196DFEFED1AFD0A0E5F0E
:1002F0001F4FAFCFBA94A2CF1092B600A9EBB0E0D7
:1003000000EC10E0F80160E070E082E5E82EF12CEE
:10031000681508F040C03C913B3211F03D32B1F518
:1003200020E0CB01821B9109880F991FAC0140543A
:100330005F4FEA01488159814235510511F42F5F21
:10034000F0CFBB24B3946B01CB0CD11CCC0CDD1CC7
:10035000E601C054DF4FC880D980D2E5CD16D10464
:1003600011F4B394F0CF3B3219F44C0D5D1D02C073
:100370004C195D0951834083F382E282222329F0E4
:1003800080549F4FEC01F982E8821C926F5F7F4F8F
:1003900011963296BDCF20E0F801819191918F01A5
:1003A0008235910569F0092E000CAA0BBB0B8093D6
:1003B000D0009093D100A093D200B093D30003C09B
:1003C0002F5F9212E9CF0E94680360E083E00E94F1
:1003D00072038CE890E00E9488036091D0007091D5
:1003E000D1008091D2009091D3000E949B0360E0E5
:1003F00082E00E947203FFEF20E782E0F15020408C
:100400008040E1F723C0E091B800F0E0EE0FFF1F5D
:10041000E054FF4F40815181282F30E041155105B4
:1004200019F4205331090AC09AE0949FB001959FB6
:10043000700D112420533109260F371F318320837B
:100440000E948603AFE3BCE91197F1F700C00000FA
:10045000DF91CF911F910F91FF90EF90DF90CF90A0
:10046000BF90AF909F908F900895CF93C5E161E0CA
:100470008C2F0E945A05C150C131C9F7CF91089500
:10048000DF92EF92FF920F931F93CF93DF9380E65B
:10049000E82E80E0F82EC5E194E5D92E60E08C2F9F
:1004A0000E945A05DFE100E010E08D2F0E940D064A
:1004B000811117C00330A9F0F701E00FF11FD080C0
:1004C0008FE19EE40197F1F700C000008D2F0E949C
:1004D0000D068823D9F38FE19EE40197F1F700C060
:1004E00000000F5F1F4FD15005301105F1F661E09C
:1004F0008C2F0E945A05C15095E0E90EF11CC131C4
:1005000069F68D2DDF91CF911F910F91FF90EF90A4
:10051000DF900895CF93C82F60E083E00E945A05D2
:100520006C2F661F6627661F8CE00E945A05C6FB6B
:10053000662760F98AE00E945A05C5FB662760F9C4
:1005400089E00E945A05C4FB662760F988E00E9492
:100550005A0561E082E00E945A058FEC97E001970E
:10056000F1F700C0000060E082E00E945A058FECC5
:1005700097E00197F1F700C00000C3FB662760F920
:100580008CE00E945A05C2FB662760F98AE00E944F
:100590005A05C1FB662760F989E00E945A056C2F55
:1005A000617088E00E945A0561E082E00E945A056D
:1005B0008FEC97E00197F1F700C0000060E082E067
:1005C0000E945A058FEC97E00197F1F700C00000F8
:1005D000CF910895CF93C82F61E083E00E945A0520
:1005E0006C2F661F6627661F8CE00E945A05C6FBAB
:1005F000662760F98AE00E945A05C5FB662760F904
:1006000089E00E945A05C4FB662760F988E00E94D1
:100610005A0561E082E00E945A058FEC97E001974D
:10062000F1F700C0000060E082E00E945A058FEC04
:1006300097E00197F1F700C00000C3FB662760F95F
:100640008CE00E945A05C2FB662760F98AE00E948E
:100650005A05C1FB662760F989E00E945A056C2F94
:10066000617088E00E945A0561E082E00E945A05AC
:100670008FEC97E00197F1F700C0000060E082E0A6
:100680000E945A058FEC97E00197F1F700C0000037
:10069000CF9108952FE788E391E02150804090406A
:1006A000E1F700C0000082E00E948A0288E20E9416
:1006B0008A028CE00E948A0281E00E948A028FEC0A
:1006C00097E00197F1F700C0000086E00C948A02E1
:1006D00081E00E948A028FEC97E00197F1F700C059
:1006E00000000895982F862F913011F480580BC088
:1006F000923011F4805407C0933011F48C5603C02B
:10070000943019F48C520C948A0208950C94EA02E5
:100710000F931F93CF938C01C0E0F801EC0FF11DF4
:100720008081882321F00E94EA02CF5FF6CFCF912B
:100730001F910F9108954F925F926F927F92AF92A7
:10074000BF92CF92DF92EF92FF921F93CF93DF93EE
:10075000CDB7DEB764970FB6F894DEBF0FBECDBF3E
:100760006B017C016115710581059105B1F480E390
:1007700064960FB6F894DEBF0FBECDBFDF91CF9168
:100780001F91FF90EF90DF90CF90BF90AF907F9040
:100790006F905F904F900C94EA0297FF0BC08DE230
:1007A0000E94EA02F094E094D094C094C11CD11C41
:1007B000E11CF11C10E09AE0492E512C612C712CA7
:1007C000AA24A394B12CAC0EBD1EA10EB11CC7016E
:1007D000B601A30192010E94D106605DF50160831C
:1007E00081E0810F69017A01C114D104E104F104AF
:1007F00011F0182FE5CFF12EF7FC0DC0E1E0F0E08D
:10080000EC0FFD1FEF0DF11DF7FCFA9580810E94A2
:10081000EA02FA94F1CF64960FB6F894DEBF0FBEE9
:10082000CDBFDF91CF911F91FF90EF90DF90CF90E0
:10083000BF90AF907F906F905F904F9008950E940F
:1008400047050E944A030E9435020E9449000E9407
:100850008000FDCF1F920F920FB60F9211242F939D
:100860003F934F935F936F937F938F939F93AF9338
:10087000BF93EF93FF931092D400E0917400F09136
:100880007500E230F10509F00995FF91EF91BF91F4
:10089000AF919F918F917F916F915F914F913F9118
:1008A0002F910F900FBE0F901F901895982F977053
:1008B000869586958695613009F44DC020F06230AA
:1008C00009F496C008958130B1F028F0823019F112
:1008D000833089F108954AB321E030E0B90102C0C4
:1008E000660F771F9A95E2F7CB01942F982B9ABB4E
:1008F0009BB3809547C047B321E030E0B90102C007
:10090000660F771F9A95E2F7CB01942F982B97BB30
:1009100098B3809549C044B321E030E0B90102C0EA
:10092000660F771F9A95E2F7CB01942F982B94BB13
:1009300095B380954AC041B321E030E0B90102C0CF
:10094000660F771F9A95E2F7CB01942F982B91BBF6
:1009500092B380954BC08130C1F028F0823031F1E4
:100960008330A9F108954AB321E030E0B90102C013
:10097000660F771F9A95E2F7CB018095942F982305
:100980009ABB9BB389238BBB089547B321E030E02A
:10099000B90102C0660F771F9A95E2F7CB018095E7
:1009A000942F982397BB98B389234BC044B321E07D
:1009B00030E0B90102C0660F771F9A95E2F7CB01CC
:1009C0008095942F982394BB95B389234CC041B351
:1009D00021E030E0B90102C0660F771F9A95E2F777
:1009E000CB018095942F982391BB92B389234DC05E
:1009F0008130B9F028F0823031F18330B1F10895BF
:100A00004AB321E030E0B90102C0660F771F9A9522
:100A1000E2F7CB01962F909594239ABB9BB3892B39
:100A2000B2CF47B321E030E0B90102C0660F771FB3
:100A30009A95E2F7CB01962F9095942397BB98B3A4
:100A4000892B88BB089544B321E030E0B90102C08E
:100A5000660F771F9A95E2F7CB01962F9095942316
:100A600094BB95B3892B85BB089541B321E030E059
:100A7000B90102C0660F771F9A95E2F7CB01962F56
:100A80009095942391BB92B3892B82BB08950F93C9
:100A90001F93CF9305E910E0C0E0F80161918F0149
:100AA0008C2F0E945604CF5FC032B9F7CF911F91AF
:100AB0000F910895982F9770869586958695813029
:100AC00089F138F0823009F456C0833009F47CC0D3
:100AD00008952AB330E0092E02C0359527950A946F
:100AE000E2F720FF99C0662319F0613071F0089594
:100AF0004BB321E030E0B90102C0660F771F9A9531
:100B0000E2F7CB01809584230BC04BB321E030E0AA
:100B1000B90102C0660F771F9A95E2F7CB01842BCB
:100B20008BBB089527B330E0092E02C03595279579
:100B30000A94E2F720FF70C0662319F0613071F06B
:100B4000089548B321E030E0B90102C0660F771F75
:100B50009A95E2F7CB01809584230BC048B321E03E
:100B600030E0B90102C0660F771F9A95E2F7CB011A
:100B7000842B88BB089524B330E0092E02C035953C
:100B800027950A94E2F720FF47C0662319F06130E9
:100B900071F0089545B321E030E0B90102C0660F5D
:100BA000771F9A95E2F7CB01809584230BC045B35C
:100BB00021E030E0B90102C0660F771F9A95E2F795
:100BC000CB01842B85BB089521B330E0092E02C0F0
:100BD000359527950A94E2F720FF1EC0662319F089
:100BE000613071F0089542B321E030E0B90102C0F4
:100BF000660F771F9A95E2F7CB01809584230BC08F
:100C000042B321E030E0B90102C0660F771F9A9528
:100C1000E2F7CB01842B82BB0895282F277086959D
:100C200086958695813049F030F0823041F08330EE
:100C300079F480B305C089B303C086B301C083B320
:100C400090E002C0959587952A95E2F78170089506
:100C500080E008951F920F920FB60F9211242F93E8
:100C60003F934F935F936F937F938F939F93AF9334
:100C7000BF93EF93FF93E0917A00F0917B00E23015
:100C8000F10509F00995FF91EF91BF91AF919F9107
:100C90008F917F916F915F914F913F912F910F9025
:100CA0000FBE0F901F90189578941F920F920FB659
:100CB0000F9211242F933F934F935F936F937F93E2
:100CC0008F939F93AF93BF93EF93FF93E09178003F
:100CD000F0917900E230F10509F00995FF91EF916B
:100CE000BF91AF919F918F917F916F915F914F9144
:100CF0003F912F910F900FBE0F901F9018951F924C
:100D00000F920FB60F9211242F933F934F935F933F
:100D10006F937F938F939F93AF93BF93EF93FF93C3
:100D2000E0917600F0917700E230F10509F0099545
:100D3000FF91EF91BF91AF919F918F917F916F91B3
:100D40005F914F913F912F910F900FBE0F901F9089
:100D50001895AA1BBB1B51E107C0AA1FBB1FA617F2
:100D6000B70710F0A61BB70B881F991F5A95A9F754
:100D700080959095BC01CD01089597FB072E16F440
:100D8000009407D077FD09D00E94A90607FC05D082
:100D90003EF4909581959F4F0895709561957F4F92
:100DA0000895052E97FB1EF400940E94E80657FD57
:100DB00007D00E94F00607FC03D04EF40C94E8061E
:100DC00050954095309521953F4F4F4F5F4F089577
:100DD00090958095709561957F4F8F4F9F4F0895A7
:100DE000A1E21A2EAA1BBB1BFD010DC0AA1FBB1F2F
:100DF000EE1FFF1FA217B307E407F50720F0A21BA1
:100E0000B30BE40BF50B661F771F881F991F1A940D
:100E100069F760957095809590959B01AC01BD0137
:080E2000CF010895F894FFCF03
:100E2800373839202F343536202A313233202D43B4
:100E3800303D202B020002000200020043616C6377
:100E4800206170702072656164793A00726573750B
:100E58006C743D200002000000000000000000004B
:100E68000000000000000000000000000000000278
:060E78000200020202006C
:00000001FF
