S01300004E54495F447269766572732E73726563E8
S11300000C942A000C9430060C945A060C94850621
S11300100C94D5070C94AB070C9481070C942D0712
S11300200C9457070C9403070C94D9060C94AF0650
S11300300C9447000C9447000C9447000C94470020
S11300400C94D6030C9447000C9447000C9447007E
S11300500C94470011241FBECFE5D8E0DEBFCDBF0E
S113006010E0A0E6B0E0EAECF0E102C005900D92E9
S1130070AE3EB107D9F720E0AEEEB0E001C01D926C
S1130080A93FB207E1F70E94ED020C9463080C94B7
S11300900000CF93C82F60E083E00E9406056C2F18
S11300A0661F6627661F8CE00E940605C6FB66274E
S11300B060F98BE00E940605C5FB662760F989E0BC
S11300C00E940605C4FB662760F988E00E940605C5
S11300D061E084E00E9406058FEC97E00197F1F758
S11300E000C0000060E084E00E9406058FEC97E009
S11300F00197F1F700C00000C3FB662760F98CE0AC
S11301000E940605C2FB662760F98BE00E94060583
S1130110C1FB662760F989E00E9406056C2F6170B7
S113012088E00E94060561E084E00E9406058FECE9
S113013097E00197F1F700C0000060E084E00E94BE
S113014006058FEC97E00197F1F700C00000CF910E
S11301500895CF93C82F61E083E00E9406056C2FB9
S1130160661F6627661F8CE00E940605C6FB66278D
S113017060F98BE00E940605C5FB662760F989E0FB
S11301800E940605C4FB662760F988E00E94060504
S113019061E084E00E9406058FEC97E00197F1F797
S11301A000C0000060E084E00E9406058FEC97E048
S11301B00197F1F700C00000C3FB662760F98CE0EB
S11301C00E940605C2FB662760F98BE00E940605C3
S11301D0C1FB662760F989E00E9406056C2F6170F7
S11301E088E00E94060561E084E00E9406058FEC29
S11301F097E00197F1F700C0000060E084E00E94FE
S113020006058FEC97E00197F1F700C00000CF914D
S113021008952FE788E391E0215080409040E1F772
S113022000C0000082E00E94490088E20E94490068
S11302308CE00E94490081E00E9449008FEC97E025
S11302400197F1F700C0000086E00C94490081E0BA
S11302500E9449008FEC97E00197F1F700C000007D
S11302600895982F862F913011F480580BC0923046
S113027011F4805407C0933011F48C5603C09430A9
S113028019F48C520C94490008950F931F93CF9343
S11302908C01C0E0F801EC0FF11D8081882321F06E
S11302A00E94A900CF5FF6CFCF911F910F910895BF
S11302B04F925F926F927F92AF92BF92CF92DF92F2
S11302C0EF92FF921F93CF93DF93CDB7DEB764977E
S11302D00FB6F894DEBF0FBECDBF6B017C01611574
S11302E0710581059105B1F480E364960FB6F89425
S11302F0DEBF0FBECDBFDF91CF911F91FF90EF9076
S1130300DF90CF90BF90AF907F906F905F904F90B1
S11303100C94A90097FF0BC08DE20E94A900F094F1
S1130320E094D094C094C11CD11CE11CF11C10E0D9
S11303309AE0492E512C612C712CAA24A394B12C3F
S1130340AC0EBD1EA10EB11CC701B601A3019201E2
S11303500E941308605DF501608381E0810F6901EB
S11303607A01C114D104E104F10411F0182FE5CF8E
S1130370F12EF7FC0DC0E1E0F0E0EC0FFD1FEF0DF6
S1130380F11DF7FCFA9580810E94A900FA94F1CF3F
S113039064960FB6F894DEBF0FBECDBFDF91CF9148
S11303A01F91FF90EF90DF90CF90BF90AF907F9020
S11303B06F905F904F90089562E080E00E94020485
S11303C060E084E00E94020460E08FE00E94020486
S11303D060E085E00E94020460E086E00C94020480
S11303E0CF92DF92EF92FF929C01A8E8B3E10E94C2
S11303F032086B017C018AE0F694E794D794C794A1
S11304008A95D1F720E5C21623ECD206D1F161E03A
S113041020E3C21621E1D20628F08FE00E940605EF
S113042060E009C028E4C2162DE0D20648F08FE04F
S11304300E94060561E084E00E94060560E00DC0AC
S113044020EDC21627E0D20668F08FE00E94060570
S113045061E084E00E94060561E085E00E940605F3
S113046060E00CC08FE00E94060561E084E00E9419
S1130470060561E085E00E94060561E086E00E94D1
S11304800605C601FF90EF90DF90CF90089562E0DB
S113049081E00C9402049C01A8E8B3E10E943208B4
S11304A0DC01CB012AE0B695A795979587952A9507
S11304B0D1F78D3D25E0920730F46AE070E00E94A8
S11304C0FF07862F089586E908958091F600882312
S11304D0C9F060E083E00E94310188E990E00E9465
S11304E0450160E084E00E9431018091F000909128
S11304F0F1000E94F001BC0180E090E00E945801EC
S11305001092F60060E08AE10C9406058091F700F1
S11305108823D1F068E083E00E9431018CE990E007
S11305200E94450168E084E00E9431018091F2005C
S11305309091F3000E944B02682F70E080E090E0FD
S11305400E9458011092F70060E08BE10C940605BC
S11305508091F8008823B1F060E183E00E943101CA
S113056081EA90E00E94450160E184E00E9431014B
S11305706091F4007091F50080E090E00E945801D1
S11305801092F80060E08AE00C940605CF93DF93A4
S11305908091EE00C091EE00D0E0823059F40E94C8
S11305A0BE03CC0FDD1FC051DF4F998388831092A7
S11305B0EE000DC00E94BE03CC0FDD1FC051DF4F03
S11305C0998388838091EE008F5F8093EE00809101
S11305D0EE00DF91CF910C94C1030E94F3040E94BA
S11305E0090166E081E00E94A8030E94DC010E94E8
S11305F0470286EA90E00E94450160E082E00E94A2
S1130600310186EB90E00E94450160E083E00E94A6
S1130610310189EC90E00E94450160E084E00E9491
S113062031018EED90E00E9445012FEF81E19AE7C0
S1130630215080409040E1F700C000000E940F0666
S113064065E672E080E00E941B0680E00E94B90526
S113065066E872E081E00E941B0681E00E94B90511
S113066068EA72E082E00E941B0682E00E94B905FB
S113067080E00E94C10386EC92E00E94D10378944A
S1130680C1E00E9427018091F0009091F1000E9446
S1130690F0018D389A4050F0C093F60061E087E095
S11306A00E94060561E08AE10E9406058091F2003D
S11306B09091F3000E944B02873450F0C093F700EE
S11306C061E087E00E94060561E08BE10E94060577
S11306D02091F4003091F500A8E8B3E10E943208BB
S11306E0DC01CB012AE0B695A795979587952A95C5
S11306F0D1F79093F5008093F4008091F4009091E9
S1130700F500893B9B4050F0C093F80061E087E01E
S11307100E94060561E08AE00E9406058091F600C9
S113072081110CC08091F700811108C08091F800FC
S1130730811104C060E087E00E9406058FEF94E316
S11307402CE0815090402040E1F700C0000099CF98
S1130750813041F028F0823039F43E9A3F9A04C047
S11307603E9801C03E9A3F9886B1887F86B986B18B
S11307706770682B66B9379A339A089584B195B136
S113078008959091EF0091110BC0339A97B1907E28
S113079097B997B1892B87B9369A81E08093EF0096
S11307A00895909361008093600008951F920F92C2
S11307B00FB60F9211242F933F934F935F936F9330
S11307C07F938F939F93AF93BF93EF93FF93109275
S11307D0EF00E0916000F0916100E230F10509F072
S11307E00995FF91EF91BF91AF919F918F917F9167
S11307F06F915F914F913F912F910F900FBE0F908A
S11308001F901895982F97708695869586956130D8
S113081009F44DC020F0623009F496C00895813087
S1130820B1F028F0823019F1833089F108954AB388
S113083021E030E0B90102C0660F771F9A95E2F714
S1130840CB01942F982B9ABB9BB3809547C047B399
S113085021E030E0B90102C0660F771F9A95E2F7F4
S1130860CB01942F982B97BB98B3809549C044B380
S113087021E030E0B90102C0660F771F9A95E2F7D4
S1130880CB01942F982B94BB95B380954AC041B368
S113089021E030E0B90102C0660F771F9A95E2F7B4
S11308A0CB01942F982B91BB92B380954BC0813090
S11308B0C1F028F0823031F18330A9F108954AB3B0
S11308C021E030E0B90102C0660F771F9A95E2F784
S11308D0CB018095942F98239ABB9BB389238BBB20
S11308E0089547B321E030E0B90102C0660F771FD5
S11308F09A95E2F7CB018095942F982397BB98B3F0
S113090089234BC044B321E030E0B90102C0660F33
S1130910771F9A95E2F7CB018095942F982394BB87
S113092095B389234CC041B321E030E0B90102C042
S1130930660F771F9A95E2F7CB018095942F982341
S113094091BB92B389234DC08130B9F028F0823035
S113095031F18330B1F108954AB321E030E0B901B7
S113096002C0660F771F9A95E2F7CB01962F9095F8
S113097094239ABB9BB3892BB2CF47B321E030E0D9
S1130980B90102C0660F771F9A95E2F7CB01962F43
S11309909095942397BB98B3892B88BB089544B34F
S11309A021E030E0B90102C0660F771F9A95E2F7A3
S11309B0CB01962F9095942394BB95B3892B85BB3B
S11309C0089541B321E030E0B90102C0660F771FFA
S11309D09A95E2F7CB01962F9095942391BB92B30D
S11309E0892B82BB08950F931F93CF9308E710E0E0
S11309F0C0E0F80161918F018C2F0E940204CF5F47
S1130A00C032B9F7CF911F910F910895982F977025
S1130A10869586958695813089F138F0823009F47F
S1130A2056C0833009F47CC008952AB330E0092EFF
S1130A3002C0359527950A94E2F720FF99C06623F2
S1130A4019F0613071F008954BB321E030E0B90141
S1130A5002C0660F771F9A95E2F7CB018095842335
S1130A600BC04BB321E030E0B90102C0660F771F21
S1130A709A95E2F7CB01842B8BBB089527B330E022
S1130A80092E02C0359527950A94E2F720FF70C01D
S1130A90662319F0613071F0089548B321E030E025
S1130AA0B90102C0660F771F9A95E2F7CB018095D2
S1130AB084230BC048B321E030E0B90102C0660FC3
S1130AC0771F9A95E2F7CB01842B88BB089524B352
S1130AD030E0092E02C0359527950A94E2F720FFED
S1130AE047C0662319F0613071F0089545B321E0E1
S1130AF030E0B90102C0660F771F9A95E2F7CB0187
S1130B00809584230BC045B321E030E0B90102C0D5
S1130B10660F771F9A95E2F7CB01842B85BB089566
S1130B2021B330E0092E02C0359527950A94E2F7E7
S1130B3020FF1EC0662319F0613071F0089542B39E
S1130B4021E030E0B90102C0660F771F9A95E2F701
S1130B50CB01809584230BC042B321E030E0B9017E
S1130B6002C0660F771F9A95E2F7CB01842B82BBF4
S1130B700895813039F018F0823039F008958BB738
S1130B80806405C08BB7806802C08BB780628BBF5E
S1130B9008958130F1F018F08230B1F10895613098
S1130BA049F028F0623061F0633069F0089585B748
S1130BB08E7F02C085B7816085BF85B78D7F22C0D7
S1130BC085B78E7F02C085B7816085BF85B7826097
S1130BD019C0613049F028F0623061F0633069F087
S1130BE0089585B78B7F02C085B7846085BF85B7BC
S1130BF0877F08C085B78B7F02C085B7846085BFB7
S1130C0085B7886085BF0895623029F0633019F490
S1130C1084B7806402C084B78F7B84BF089563E087
S1130C2080E00E94C90563E081E00E94C90563E099
S1130C3082E00C94C905813049F018F0823059F0F3
S1130C40089570936700609366000895709365003B
S1130C506093640008957093630060936200089544
S1130C601F920F920FB60F9211242F933F934F931D
S1130C705F936F937F938F939F93AF93BF93EF9300
S1130C80FF93E0916600F0916700E230F10509F00E
S1130C900995FF91EF91BF91AF919F918F917F91B2
S1130CA06F915F914F913F912F910F900FBE0F90D5
S1130CB01F90189578941F920F920FB60F921124DB
S1130CC02F933F934F935F936F937F938F939F9350
S1130CD0AF93BF93EF93FF93E0916400F0916500AD
S1130CE0E230F10509F00995FF91EF91BF91AF91C1
S1130CF09F918F917F916F915F914F913F912F9130
S1130D000F900FBE0F901F9018951F920F920FB661
S1130D100F9211242F933F934F935F936F937F937D
S1130D208F939F93AF93BF93EF93FF93E0916200F0
S1130D30F0916300E230F10509F00995FF91EF911C
S1130D40BF91AF919F918F917F916F915F914F91DF
S1130D503F912F910F900FBE0F901F9018951F92E7
S1130D600F920FB60F9211242F933F934F935F93DB
S1130D706F937F938F939F93AF93BF93EF93FF935F
S1130D80E0917600F0917700E230F10509F00995E1
S1130D90FF91EF91BF91AF919F918F917F916F914F
S1130DA05F914F913F912F910F900FBE0F901F9025
S1130DB018951F920F920FB60F9211242F933F9301
S1130DC04F935F936F937F938F939F93AF93BF934F
S1130DD0EF93FF93E0917400F0917500E230F10518
S1130DE009F00995FF91EF91BF91AF919F918F9178
S1130DF07F916F915F914F913F912F910F900FBE13
S1130E000F901F9018951F920F920FB60F921124F6
S1130E102F933F934F935F936F937F938F939F93FE
S1130E20AF93BF93EF93FF93E0917200F09173003F
S1130E30E230F10509F00995FF91EF91BF91AF916F
S1130E409F918F917F916F915F914F913F912F91DE
S1130E500F900FBE0F901F9018951F920F920FB610
S1130E600F9211242F933F934F935F936F937F932C
S1130E708F939F93AF93BF93EF93FF93E091700091
S1130E80F0917100E230F10509F00995FF91EF91BD
S1130E90BF91AF919F918F917F916F915F914F918E
S1130EA03F912F910F900FBE0F901F9018951F9296
S1130EB00F920FB60F9211242F933F934F935F938A
S1130EC06F937F938F939F93AF93BF93EF93FF930E
S1130ED0E0916E00F0916F00E230F10509F00995A0
S1130EE0FF91EF91BF91AF919F918F917F916F91FE
S1130EF05F914F913F912F910F900FBE0F901F90D4
S1130F0018951F920F920FB60F9211242F933F93AF
S1130F104F935F936F937F938F939F93AF93BF93FD
S1130F20EF93FF93E0916C00F0916D00E230F105D6
S1130F3009F00995FF91EF91BF91AF919F918F9126
S1130F407F916F915F914F913F912F910F900FBEC1
S1130F500F901F9018951F920F920FB60F921124A5
S1130F602F933F934F935F936F937F938F939F93AD
S1130F70AF93BF93EF93FF93E0916A00F0916B00FE
S1130F80E230F10509F00995FF91EF91BF91AF911E
S1130F909F918F917F916F915F914F913F912F918D
S1130FA00F900FBE0F901F9018951F920F920FB6BF
S1130FB00F9211242F933F934F935F936F937F93DB
S1130FC08F939F93AF93BF93EF93FF93E091680048
S1130FD0F0916900E230F10509F00995FF91EF9174
S1130FE0BF91AF919F918F917F916F915F914F913D
S1130FF03F912F910F900FBE0F901F901895AA1B31
S1131000BB1B51E107C0AA1FBB1FA617B70710F0EF
S1131010A61BB70B881F991F5A95A9F78095909521
S1131020BC01CD010895052E97FB1EF400940E9487
S11310302A0857FD07D00E94410807FC03D04EF44C
S11310400C942A0850954095309521953F4F4F4F69
S11310505F4F089590958095709561957F4F8F4F60
S11310609F4F0895A29FB001B39FC001A39F700D2D
S1131070811D1124911DB29F700D811D1124911D9C
S11310800895A1E21A2EAA1BBB1BFD010DC0AA1FC5
S1131090BB1FEE1FFF1FA217B307E407F50720F0DD
S11310A0A21BB30BE40BF50B661F771F881F991F58
S11310B01A9469F760957095809590959B01AC01A1
S10D10C0BD01CF010895F894FFCF9D
S11310CA0200020002000200020002000200020002
S11310DA02000200020002000200020000000000F6
S11310EA00000000000000000000000000000000F2
S11310FA00000000000202024C4452004C4D3335F9
S113110A00536E7333004E544920414443205072B5
S113111A6F6A6563740057652077696C6C206F6E1B
S113112A6C792073686F773A004C44523E323730F8
S113113A306D762026204C4D33353E3730005365CA
S111114A6E736F72333E33303030206D76009A
S9030000FC
