:100000000C942A000C9434040C945E040C9489041F
:100010000C9447000C9447000C9447000C94470044
:100020000C9447000C9447000C9447000C94470034
:100030000C9447000C9447000C9447000C94470024
:100040000C9451020C9447000C9447000C94470008
:100050000C94470011241FBECFE5D8E0DEBFCDBF12
:1000600011E0A0E6B0E0EAE6F9E002C005900D92EA
:10007000A632B107D9F721E0A6E2B1E001C01D9296
:10008000A732B207E1F70E9482010C94B3040C94EA
:100090000000CF93C82F60E083E00E9481036C2FA3
:1000A000661F6627661F8CE00E948103C6FB6627D9
:1000B00060F98AE00E948103C5FB662760F989E048
:1000C0000E948103C4FB662760F988E00E948103D7
:1000D00061E082E00E9481038FEC97E00197F1F7E5
:1000E00000C0000060E082E00E9481038FEC97E096
:1000F0000197F1F700C00000C3FB662760F98CE0B0
:100100000E948103C2FB662760F98AE00E94810396
:10011000C1FB662760F989E00E9481036C2F617042
:1001200088E00E94810361E082E00E9481038FECFD
:1001300097E00197F1F700C0000060E082E00E94C4
:1001400081038FEC97E00197F1F700C00000CF9199
:100150000895CF93C82F61E083E00E9481036C2F44
:10016000661F6627661F8CE00E948103C6FB662718
:1001700060F98AE00E948103C5FB662760F989E087
:100180000E948103C4FB662760F988E00E94810316
:1001900061E082E00E9481038FEC97E00197F1F724
:1001A00000C0000060E082E00E9481038FEC97E0D5
:1001B0000197F1F700C00000C3FB662760F98CE0EF
:1001C0000E948103C2FB662760F98AE00E948103D6
:1001D000C1FB662760F989E00E9481036C2F617082
:1001E00088E00E94810361E082E00E9481038FEC3D
:1001F00097E00197F1F700C0000060E082E00E9404
:1002000081038FEC97E00197F1F700C00000CF91D8
:1002100008952FE788E391E0215080409040E1F776
:1002200000C0000082E00E94490088E20E9449006C
:100230008CE00E94490081E00E9449008FEC97E029
:100240000197F1F700C0000086E00C94490081E0BE
:100250000E9449008FEC97E00197F1F700C0000081
:100260000895982F862F913011F480580BC092304A
:1002700011F4805407C0933011F48C5603C09430AD
:1002800019F48C520C94490008950C94A9000F9312
:100290001F93CF938C01C0E0F801EC0FF11D80811A
:1002A000882321F00E94A900CF5FF6CFCF911F9144
:1002B0000F9108950F931F93CF93DF938830E8F445
:1002C0008B01880F880F880F805C0E944900E8012D
:1002D000085F1F4F8FEC97E00197F1F700C0000017
:1002E00089910E94A900C017D107A1F780E8DF918A
:1002F000CF911F910F910C944900DF91CF911F91E5
:100300000F910895CF93DF93CDB7DEB728970FB63F
:10031000F894DEBF0FBECDBF0E946E030E9409019C
:1003200088E0E8E6F0E0DE01119601900D928A95F2
:10033000E1F710E0BE016F5F7F4F80E00E945A013D
:10034000612F81E00E94310180E00E9445012FEF82
:1003500081EE94E0215080409040E1F700C0000021
:100360001E5F143139F760E082E00E94310180E9BC
:1003700090E00E94470160E083E00E94310184EA3E
:1003800090E00E94470160E084E00E94310189EB27
:1003900090E00E9447012FEF8DE399E421508040C7
:1003A0009040E1F700C000000E94270110E0BE016C
:1003B0006F5F7F4F80E00E945A01612F81E00E94B1
:1003C000310180E00E9445012FEF81EE94E0215041
:1003D00080409040E1F700C000001E5F143139F703
:1003E00060E082E00E9431018EEC90E00E944701C3
:1003F00060E083E00E94310183EE90E00E944701BB
:1004000060E084E00E94310188EF90E00E944701A3
:100410002FEF8DE399E4215080409040E1F700C038
:1004200000000E94270110E0BE016F5F7F4F80E057
:100430000E945A01612F81E00E94310180E00E94F8
:10044000450161E0610F84E00E94310180E00E947B
:1004500045012FEF80E792E0215080409040E1F786
:1004600000C000001D5F1531F9F660E082E00E94D7
:1004700031018DE091E00E9447016AE083E00E9433
:10048000310182E291E00E9447012FEF8DE399E470
:10049000215080409040E1F700C000000E942701F9
:1004A0003FCF1F920F920FB60F9211242F933F93BD
:1004B0004F935F936F937F938F939F93AF93BF936C
:1004C000EF93FF9310922601E0916000F09161009C
:1004D000E230F10509F00995FF91EF91BF91AF91DD
:1004E0009F918F917F916F915F914F913F912F914C
:1004F0000F900FBE0F901F901895982F97708695AC
:1005000086958695613009F44DC020F0623009F47B
:1005100096C008958130B1F028F0823019F183300F
:1005200089F108954AB321E030E0B90102C0660FB5
:10053000771F9A95E2F7CB01942F982B9ABB9BB328
:10054000809547C047B321E030E0B90102C0660F93
:10055000771F9A95E2F7CB01942F982B97BB98B30E
:10056000809549C044B321E030E0B90102C0660F74
:10057000771F9A95E2F7CB01942F982B94BB95B3F4
:1005800080954AC041B321E030E0B90102C0660F56
:10059000771F9A95E2F7CB01942F982B91BB92B3DA
:1005A00080954BC08130C1F028F0823031F183302A
:1005B000A9F108954AB321E030E0B90102C0660F05
:1005C000771F9A95E2F7CB018095942F98239ABBD9
:1005D0009BB389238BBB089547B321E030E0B90179
:1005E00002C0660F771F9A95E2F7CB018095942F92
:1005F000982397BB98B389234BC044B321E030E0E4
:10060000B90102C0660F771F9A95E2F7CB0180957A
:10061000942F982394BB95B389234CC041B321E018
:1006200030E0B90102C0660F771F9A95E2F7CB015F
:100630008095942F982391BB92B389234DC081302C
:10064000B9F028F0823031F18330B1F108954AB326
:1006500021E030E0B90102C0660F771F9A95E2F7FA
:10066000CB01962F909594239ABB9BB3892BB2CF45
:1006700047B321E030E0B90102C0660F771F9A95B9
:10068000E2F7CB01962F9095942397BB98B3892BD3
:1006900088BB089544B321E030E0B90102C0660F81
:1006A000771F9A95E2F7CB01962F9095942394BBF0
:1006B00095B3892B85BB089541B321E030E0B901A2
:1006C00002C0660F771F9A95E2F7CB01962F90959F
:1006D000942391BB92B3892B82BB08950F931F93F0
:1006E000CF9300E710E0C0E0F80161918F018C2FFB
:1006F0000E947D02CF5FC032B9F7CF911F910F9159
:100700000895982F9770869586958695813089F102
:1007100038F0823009F456C0833009F47CC0089563
:100720002AB330E0092E02C0359527950A94E2F7E6
:1007300020FF99C0662319F0613071F008954BB322
:1007400021E030E0B90102C0660F771F9A95E2F709
:10075000CB01809584230BC04BB321E030E0B9017D
:1007600002C0660F771F9A95E2F7CB01842B8BBBF3
:10077000089527B330E0092E02C0359527950A94D5
:10078000E2F720FF70C0662319F0613071F0089520
:1007900048B321E030E0B90102C0660F771F9A9597
:1007A000E2F7CB01809584230BC048B321E030E011
:1007B000B90102C0660F771F9A95E2F7CB01842B2F
:1007C00088BB089524B330E0092E02C035952795E3
:1007D0000A94E2F720FF47C0662319F0613071F0F8
:1007E000089545B321E030E0B90102C0660F771FDC
:1007F0009A95E2F7CB01809584230BC045B321E0A5
:1008000030E0B90102C0660F771F9A95E2F7CB017D
:10081000842B85BB089521B330E0092E02C03595A5
:1008200027950A94E2F720FF1EC0662319F0613075
:1008300071F0089542B321E030E0B90102C0660FC3
:10084000771F9A95E2F7CB01809584230BC042B3C2
:1008500021E030E0B90102C0660F771F9A95E2F7F8
:10086000CB01842B82BB08951F920F920FB60F927B
:1008700011242F933F934F935F936F937F938F93A5
:100880009F93AF93BF93EF93FF93E0916600F09136
:100890006700E230F10509F00995FF91EF91BF91F2
:1008A000AF919F918F917F916F915F914F913F9108
:1008B0002F910F900FBE0F901F90189578941F9254
:1008C0000F920FB60F9211242F933F934F935F9384
:1008D0006F937F938F939F93AF93BF93EF93FF9308
:1008E000E0916400F0916500E230F10509F00995AE
:1008F000FF91EF91BF91AF919F918F917F916F91F8
:100900005F914F913F912F910F900FBE0F901F90CD
:1009100018951F920F920FB60F9211242F933F93A9
:100920004F935F936F937F938F939F93AF93BF93F7
:10093000EF93FF93E0916200F0916300E230F105E4
:1009400009F00995FF91EF91BF91AF919F918F9120
:100950007F916F915F914F913F912F910F900FBEBB
:0A0960000F901F901895F894FFCF38
:10096A000200020002000200040E1F1F1F1F0E04D5
:10097A00020000000000000000000000000000006B
:10098A000000000000000000000002020002020253
:10099A004F6E63652075706F6E20612074696D6596
:1009AA002C20610074726176656C6572206F6E200E
:1009BA00612071756573742000746F2066696E64B6
:1009CA002068696464656E206C6F6F7420007769B3
:1009DA007468206D7973746572696F7573206D61BF
:1009EA00726B004C6F6E672073746F727920736834
:1009FA006F72742C20686500666F756E6420697466
:100A0A0020696E20612063617665784400486176CA
:100A1A0065206120776F6E64657266756C2064610B
:060A2A0079003A290000EA
:00000001FF
