:100000000C942A000C943F000C943F000C943F0089
:100010000C943F000C943F000C943F000C943F0064
:100020000C943F000C943F000C943F000C943F0054
:100030000C943F000C943F000C943F000C943F0044
:100040000C943F000C943F000C943F000C943F0034
:100050000C943F0011241FBECFE5D8E0DEBFCDBF1A
:1000600010E0A0E6B0E0E6E4F3E002C005900D92F7
:10007000AA38B107D9F70E946E000C94A1010C9424
:100080000000CF93DF93CDB7DEB72A970FB6F89471
:10009000DEBF0FBECDBF9AE0E0E6F0E0DE011196D4
:1000A00001900D929A95E1F7E1E0F0E0EC0FFD1F71
:1000B000E80FF11D60818BB3660F0E9491018FE004
:1000C00097E20197F1F700C000002A960FB6F89466
:1000D000DEBF0FBECDBFDF91CF9108950E94810199
:1000E000C0E0D0E00DC08C2F0E9441002FEF80E7D0
:1000F00092E0215080409040E1F700C0000021963E
:10010000C930D10584F3ECCF982F977086958695EA
:100110008695613009F455C020F0623009F4A1C021
:1001200008958130C1F028F0823039F18330B9F17F
:1001300008954AB321E030E0B90102C0660F771F8D
:100140009A95E2F7CB01942F982B9ABB9BB380959D
:1001500089238BBB089547B321E030E0B90102C089
:10016000660F771F9A95E2F7CB01942F982B97BBD8
:1001700098B38095892388BB089544B321E030E08B
:10018000B90102C0660F771F9A95E2F7CB01942F51
:10019000982B94BB95B38095892385BB089541B373
:1001A00021E030E0B90102C0660F771F9A95E2F7AF
:1001B000CB01942F982B91BB92B38095892382BB5E
:1001C00008958130C1F028F0823039F18330B9F1DF
:1001D00008954AB321E030E0B90102C0660F771FED
:1001E0009A95E2F7CB018095942F98239ABB9BB305
:1001F00089238BBB089547B321E030E0B90102C0E9
:10020000660F771F9A95E2F7CB018095942F98237C
:1002100097BB98B3892388BB089544B321E030E0AD
:10022000B90102C0660F771F9A95E2F7CB0180955E
:10023000942F982394BB95B3892385BB089541B32C
:1002400021E030E0B90102C0660F771F9A95E2F70E
:10025000CB018095942F982391BB92B3892382BBC5
:1002600008958130C1F028F0823039F18330B9F13E
:1002700008954AB321E030E0B90102C0660F771F4C
:100280009A95E2F7CB01962F909594239ABB9BB356
:10029000892B8BBB089547B321E030E0B90102C040
:1002A000660F771F9A95E2F7CB01962F90959423CE
:1002B00097BB98B3892B88BB089544B321E030E005
:1002C000B90102C0660F771F9A95E2F7CB01962F0E
:1002D0009095942394BB95B3892B85BB089541B326
:1002E00021E030E0B90102C0660F771F9A95E2F76E
:1002F000CB01962F9095942391BB92B3892B82BB0F
:100300000895CF93C0E009C0EC2FF0E0E659FF4F0D
:1003100060818C2F0E948400CF5FC032A8F3CF9100
:100320000895813041F028F0823039F0833039F07F
:1003300008956BBB089568BB089565BB089562BBC3
:060340000895F894FFCFC0
:100346003F065B4F666D7D077F6F00000000000073
:100356000000000000000000000000000000000097
:0A036600000000000000000000008D
:00000001FF
