:100000000C942A000C945F060C9489060C94B40698
:100010000C9482080C9458080C942E080C94DA075F
:100020000C9404080C94B0070C9432070C94080745
:100030000C94DE060C94BC080C9447000C94E60863
:100040000C9445040C9435060C9447000C9447001E
:100050000C94470011241FBECFE5D8E0DEBFCDBF12
:1000600011E0A0E6B0E0EEECF5E102C005900D92E3
:10007000A03AB107D9F721E0A0EAB1E001C01D9292
:10008000A53CB207E1F70E9400040C94E50A0C9429
:1000900000002CB53DB54CB55DB5440F551F440F60
:1000A000551FCA01A0E0B0E04427582F692F7A2FCE
:1000B000C901A0E0B0E0842B952BA62BB72B809331
:1000C000A2019093A301A093A401B093A501089568
:1000D00008958736A1F5613079F543E160E082E06B
:1000E0000E94F00360E082E00E94550384E890E003
:1000F0000E9474030E9449006091A2017091A301C3
:100100008091A4019091A5010E9487038091A20192
:100110009091A301A091A401B091A50120E18227B3
:100120009227A227B2278093600090936100A0934A
:100130006200B093630008951092A1010895109297
:10014000A1010895CF938091AD01873209F458C081
:10015000813309F0BEC08091AC01813009F04CC000
:100160008091AA019091AB0181159A4A09F044C08F
:100170008091A00181111EC043E160E084E00E94F3
:10018000F00360E084E00E9455038CE890E00E9458
:10019000740344E160E082E00E94F00360E082E0EA
:1001A0000E9455038EE990E00E94740381E08093E1
:1001B000A10193C043E160E084E00E94F00360E0AD
:1001C00084E00E9455038CE890E00E94740344E1AF
:1001D00060E082E00E94F00360E082E00E9455034C
:1001E0008DEA90E00E94740361E080E10E947E0548
:1001F00081E08093A10171C01092A10180E06DC0E7
:100200008091AC01813019F08230C1F05EC043E1D1
:1002100060E084E00E94F00360E084E00E94550307
:100220008BEB90E00E94740340E050E061E087E6D1
:100230000E94690082E08093A1014FC08091A101DA
:10024000823039F58091AA019091AB01A0E0B0E035
:100250004091600050916100609162007091630074
:1002600084179507A607B707C1F5C1E0C093A101A0
:1002700044E160E084E00E94F00360E084E00E94DA
:1002800055038FEC90E00E947403C093A00181E0BD
:1002900024C044E160E082E00E94F00360E082E07C
:1002A0000E9455038FED90E00E94740344E160E0EA
:1002B00084E00E94F00360E084E00E94550383EF35
:1002C00090E00E94740382E008C01092A10180E0D7
:1002D00004C01092A10180E000C0CF9108950F9357
:1002E0001F93CF932091A1012230E1F5009160008E
:1002F000109161002091620030916300061717078A
:100300002807390709F5C1E0C093A10144E160E085
:1003100084E00E94F00360E084E00E94550388E0DE
:1003200091E00E94740344E160E082E00E94F003E7
:1003300060E082E00E9455038AE191E00E9474032C
:10034000C093A00181E01CC044E160E084E00E9411
:10035000F00360E084E00E9455038FE291E00E9488
:1003600074030EC044E160E084E00E94F00360E0AA
:1003700084E00E9455038EE391E00E94740382E0C2
:10038000CF911F910F9108950F931F93CF93DF93F8
:10039000CDB7DEB764970FB6F894DEBF0FBECDBF02
:1003A0008C018091A101813021F08091A101811106
:1003B0003DC042E050E0B801CE0101960E948C0A97
:1003C0001B82B8016E5F7F4F42E050E0CE01049681
:1003D0000E948C0A1E82B8016C5F7F4F44E050E09F
:1003E000CE0107960E948C0A1B8640E150E060E037
:1003F00070E0CE0101960E946D096093AD0140E16D
:1004000050E060E070E0CE0104960E946D096093B8
:10041000AC0140E150E060E070E0CE0107960E9440
:100420006D097093AB016093AA014FC08091A10147
:10043000823009F04AC042E050E0B801CE01019696
:100440000E948C0A1B82B8016E5F7F4F42E050E031
:10045000CE0104960E948C0A1E82B8016C5F7F4F09
:1004600048E050E0CE010C960E948C0A1C8A40E1C4
:1004700050E060E070E0CE0101960E946D0960934B
:10048000AD0140E150E060E070E0CE0104960E94D2
:100490006D096093AC0140E150E060E070E0CE0196
:1004A0000C960E946D096093A6017093A70180933A
:1004B000A8019093A9016091A6017091A701809174
:1004C000A8019091A9010E946F0164960FB6F8945B
:1004D000DEBF0FBECDBFDF91CF911F910F91089569
:1004E0008091A00108958091A1010895CF93C82F14
:1004F00060E083E00E947E056C2F661F6627661F02
:100500008CE00E947E05C6FB662760F98AE00E94A7
:100510007E05C5FB662760F989E00E947E05C4FB65
:10052000662760F988E00E947E0561E082E00E9413
:100530007E058FEC97E00197F1F700C0000060E0C6
:1005400082E00E947E058FEC97E00197F1F700C0F2
:100550000000C3FB662760F98CE00E947E05C2FBA9
:10056000662760F98AE00E947E05C1FB662760F974
:1005700089E00E947E056C2F617088E00E947E05F4
:1005800061E082E00E947E058FEC97E00197F1F731
:1005900000C0000060E082E00E947E058FEC97E0E2
:1005A0000197F1F700C00000CF910895CF93C82FB5
:1005B00061E083E00E947E056C2F661F6627661F40
:1005C0008CE00E947E05C6FB662760F98AE00E94E7
:1005D0007E05C5FB662760F989E00E947E05C4FBA5
:1005E000662760F988E00E947E0561E082E00E9453
:1005F0007E058FEC97E00197F1F700C0000060E006
:1006000082E00E947E058FEC97E00197F1F700C031
:100610000000C3FB662760F98CE00E947E05C2FBE8
:10062000662760F98AE00E947E05C1FB662760F9B3
:1006300089E00E947E056C2F617088E00E947E0533
:1006400061E082E00E947E058FEC97E00197F1F770
:1006500000C0000060E082E00E947E058FEC97E021
:100660000197F1F700C00000CF9108952FE788E3CC
:1006700091E0215080409040E1F700C0000082E00E
:100680000E94760288E20E9476028CE00E94760246
:1006900081E00E9476028FEC97E00197F1F700C0AD
:1006A000000086E00E9476020895813029F480E8F7
:1006B000860F0E9476020895823029F480EC860F1E
:1006C0000E9476020895833029F484E9860F0E94FF
:1006D00076020895843021F484ED860F0E9476021C
:1006E00008950E94D60208950F931F93CF938C0113
:1006F000C0E003C00E94D602CF5FF801EC0FF11DED
:1007000080818111F7CFCF911F910F910895FF92B2
:100710000F931F93CF93DF93CDB7DEB72B970FB611
:10072000F894DEBF0FBECDBFAB01BC011C8600E05C
:100730001BE01150DB01CA018F709927AA27BB2744
:100740008A309105A105B10548F0E1E0F0E0EC0F39
:10075000FD1FE10FF11D895C808308C0E1E0F0E03E
:10076000EC0FFD1FE10FF11D805D8083689413F88D
:1007700076956795579547951694D1F70F5F411574
:1007800051056105710549F01111D3CFF12C06C057
:1007900080E30E94D602F39401C0F12C2F2D30E0AB
:1007A00088E090E0801B9109281739078CF30AC074
:1007B000E1E0F0E0EC0FFD1FE10FF11D80810E94F0
:1007C000D6021F5F1B30A0F32B960FB6F894DEBF46
:1007D0000FBECDBFDF91CF911F910F91FF90089574
:1007E000CF93DF93D42F0E945503C0E004C080E272
:1007F0000E947103CF5FCD17D0F3DF91CF910895A1
:100800000E946E050E9436030E94AC080E94680098
:1008100063E080E00E945C0781E791E00E9474033E
:1008200060E083E00E9455038FE791E00E9474032B
:100830008AEB91E00E9410098AEB91E00E94C401CA
:100840000E94A2000E94730281111AC043E160E07D
:1008500084E00E94F00360E084E00E9455038CE88D
:1008600091E00E947403E4CF8EEA91E00E941009A7
:100870008EEA91E00E94C4010E9470028130C1F2B0
:100880000E947302823081F3D3CF1F920F920FB672
:100890000F9211242F933F934F935F936F937F9306
:1008A0008F939F93AF93BF93EF93FF931092C201E7
:1008B000E0916400F0916500E230F10509F00995DE
:1008C000FF91EF91BF91AF919F918F917F916F9128
:1008D0005F914F913F912F910F900FBE0F901F90FE
:1008E0001895982F9770869586958695613009F4AE
:1008F00055C020F0623009F4A1C008958130C1F0E4
:1009000028F0823039F18330B9F108954AB321E0FB
:1009100030E0B90102C0660F771F9A95E2F7CB016C
:10092000942F982B9ABB9BB3809589238BBB0895FA
:1009300047B321E030E0B90102C0660F771F9A95F6
:10094000E2F7CB01942F982B97BB98B3809589231E
:1009500088BB089544B321E030E0B90102C0660FBE
:10096000771F9A95E2F7CB01942F982B94BB95B300
:100970008095892385BB089541B321E030E0B9011A
:1009800002C0660F771F9A95E2F7CB01942F982B40
:1009900091BB92B38095892382BB08958130C1F0C9
:1009A00028F0823039F18330B9F108954AB321E05B
:1009B00030E0B90102C0660F771F9A95E2F7CB01CC
:1009C0008095942F98239ABB9BB389238BBB089562
:1009D00047B321E030E0B90102C0660F771F9A9556
:1009E000E2F7CB018095942F982397BB98B3892386
:1009F00088BB089544B321E030E0B90102C0660F1E
:100A0000771F9A95E2F7CB018095942F982394BB9A
:100A100095B3892385BB089541B321E030E0B90146
:100A200002C0660F771F9A95E2F7CB018095942F4D
:100A3000982391BB92B3892382BB08958130C1F082
:100A400028F0823039F18330B9F108954AB321E0BA
:100A500030E0B90102C0660F771F9A95E2F7CB012B
:100A6000962F909594239ABB9BB3892B8BBB0895AB
:100A700047B321E030E0B90102C0660F771F9A95B5
:100A8000E2F7CB01962F9095942397BB98B3892BCF
:100A900088BB089544B321E030E0B90102C0660F7D
:100AA000771F9A95E2F7CB01962F9095942394BBEC
:100AB00095B3892B85BB089541B321E030E0B9019E
:100AC00002C0660F771F9A95E2F7CB01962F90959B
:100AD000942391BB92B3892B82BB0895CF93C0E03E
:100AE00009C0EC2FF0E0EF5AFE4F60818C2F0E947E
:100AF0007104CF5FC032A8F3CF910895982F9770FB
:100B0000869586958695813091F138F0823009F48A
:100B100058C0833009F47FC008952AB330E0092E0D
:100B200002C0359527950A94E2F720FF9DC0662301
:100B300019F0613079F008954BB321E030E0B9014C
:100B400002C0660F771F9A95E2F7CB018095842348
:100B50008BBB08954BB321E030E0B90102C0660FB2
:100B6000771F9A95E2F7CB01842B8BBB089527B3AF
:100B700030E0092E02C0359527950A94E2F720FF50
:100B800073C0662319F0613079F0089548B321E00D
:100B900030E0B90102C0660F771F9A95E2F7CB01EA
:100BA0008095842388BB089548B321E030E0B901E3
:100BB00002C0660F771F9A95E2F7CB01842B88BBA2
:100BC000089524B330E0092E02C0359527950A9484
:100BD000E2F720FF49C0662319F0613079F00895EB
:100BE00045B321E030E0B90102C0660F771F9A9546
:100BF000E2F7CB018095842385BB089545B321E0BE
:100C000030E0B90102C0660F771F9A95E2F7CB0179
:100C1000842B85BB089521B330E0092E02C03595A1
:100C200027950A94E2F720FF1FC0662319F0613070
:100C300079F0089542B321E030E0B90102C0660FB7
:100C4000771F9A95E2F7CB018095842382BB0895A4
:100C500042B321E030E0B90102C0660F771F9A95D8
:100C6000E2F7CB01842B82BB08951F920F920FB63F
:100C70000F9211242F933F934F935F936F937F9322
:100C80008F939F93AF93BF93EF93FF93E091660091
:100C9000F0916700E230F10509F00995FF91EF91BD
:100CA000BF91AF919F918F917F916F915F914F9184
:100CB0003F912F910F900FBE0F901F9018951F928C
:100CC0000F920FB60F9211242F933F934F935F9380
:100CD0006F937F938F939F93AF93BF93EF93FF9304
:100CE000E0916C00F0916D00E230F10509F009959A
:100CF000FF91EF91BF91AF919F918F917F916F91F4
:100D00005F914F913F912F910F900FBE0F901F90C9
:100D1000189578941F920F920FB60F9211242F936B
:100D20003F934F935F936F937F938F939F93AF9373
:100D3000BF93EF93FF93E0916A00F0916B00E23074
:100D4000F10509F00995FF91EF91BF91AF919F9146
:100D50008F917F916F915F914F913F912F910F9064
:100D60000FBE0F901F9018951F920F920FB60F9203
:100D700011242F933F934F935F936F937F938F93A0
:100D80009F93AF93BF93EF93FF93E0916800F0912F
:100D90006900E230F10509F00995FF91EF91BF91EB
:100DA000AF919F918F917F916F915F914F913F9103
:100DB0002F910F900FBE0F901F9018951F920F92BA
:100DC0000FB60F9211242F933F934F935F936F931E
:100DD0007F938F939F93AF93BF93EF93FF93E09194
:100DE0006E00F0916F00E230F10509F00995FF9176
:100DF000EF91BF91AF919F918F917F916F915F9193
:100E00004F913F912F910F900FBE0F901F9018950B
:100E10001F920F920FB60F9211242F933F934F936F
:100E20005F936F937F938F939F93AF93BF93EF9352
:100E3000FF93E0917E00F0917F00E230F10509F030
:100E40000995FF91EF91BF91AF919F918F917F9104
:100E50006F915F914F913F912F910F900FBE0F9027
:100E60001F9018951F920F920FB60F9211242F9377
:100E70003F934F935F936F937F938F939F93AF9322
:100E8000BF93EF93FF93E0917C00F0917D00E230FF
:100E9000F10509F00995FF91EF91BF91AF919F91F5
:100EA0008F917F916F915F914F913F912F910F9013
:100EB0000FBE0F901F901895823029F128F48823D7
:100EC00041F0813099F045C0833051F18430A9F16F
:100ED00040C08FB58E7F8FBD8FB58D7F8FBD8EB596
:100EE000877F8EBD8EB58F7E8EBD33C08FB58E7FD2
:100EF0008FBD8FB58D7F8FBD8EB588608EBD8EB551
:100F000080618EBD26C08FB58E7F8FBD8FB58D7FE2
:100F10008FBD8EB588608EBD8EB58F7E8EBD19C09B
:100F20008FB58E7F8FBD8FB582608FBD8EB5886087
:100F30008EBD8EB580618EBD0CC08FB581608FBDBA
:100F40008FB582608FBD8EB588608EBD8EB5806195
:100F50008EBD8EB5887F8EBD8EB5682B6EBD089513
:100F60001F920F920FB60F9211242F933F934F931E
:100F70005F936F937F938F939F93AF93BF93EF9301
:100F8000FF93E0917A00F0917B00E230F10509F0E7
:100F90000995FF91EF91BF91AF919F918F917F91B3
:100FA0006F915F914F913F912F910F900FBE0F90D6
:100FB0001F9018951F920F920FB60F9211242F9326
:100FC0003F934F935F936F937F938F939F93AF93D1
:100FD000BF93EF93FF93E0917800F0917900E230B6
:100FE000F10509F00995FF91EF91BF91AF919F91A4
:100FF0008F917F916F915F914F913F912F910F90C2
:101000000FBE0F901F9018951F920F920FB60F9260
:1010100011242F933F934F935F936F937F938F93FD
:101020009F93AF93BF93EF93FF93E0917600F0917E
:101030007700E230F10509F00995FF91EF91BF913A
:10104000AF919F918F917F916F915F914F913F9160
:101050002F910F900FBE0F901F9018951F920F9217
:101060000FB60F9211242F933F934F935F936F937B
:101070007F938F939F93AF93BF93EF93FF93E091F1
:101080007400F0917500E230F10509F00995FF91C7
:10109000EF91BF91AF919F918F917F916F915F91F0
:1010A0004F913F912F910F900FBE0F901F90189569
:1010B0001F920F920FB60F9211242F933F934F93CD
:1010C0005F936F937F938F939F93AF93BF93EF93B0
:1010D000FF93E0917200F0917300E230F10509F0A6
:1010E0000995FF91EF91BF91AF919F918F917F9162
:1010F0006F915F914F913F912F910F900FBE0F9085
:101100001F9018951F920F920FB60F9211242F93D4
:101110003F934F935F936F937F938F939F93AF937F
:10112000BF93EF93FF93E0917000F0917100E23074
:10113000F10509F00995FF91EF91BF91AF919F9152
:101140008F917F916F915F914F913F912F910F9070
:101150000FBE0F901F90189583E389B98BB18D7FD7
:101160008BB98AB180618AB98AB188608AB90895D9
:101170005F9BFECF8CB108951F920F920FB60F9216
:1011800011242F933F934F935F936F937F938F938C
:101190009F93AF93BF93EF93FF93E0918200F09101
:1011A0008300E230F10509F00995FF91EF91BF91BD
:1011B000AF919F918F917F916F915F914F913F91EF
:1011C0002F910F900FBE0F901F9018951F920F92A6
:1011D0000FB60F9211242F933F934F935F936F930A
:1011E0007F938F939F93AF93BF93EF93FF93E09180
:1011F0008000F0918100E230F10509F00995FF913E
:10120000EF91BF91AF919F918F917F916F915F917E
:101210004F913F912F910F900FBE0F901F901895F7
:10122000EF92FF920F931F93CF938C010E94B80807
:10123000F8018083C0E008C0CF5F7801EC0EF11C9C
:101240000E94B808F7018083F801EC0FF11D80813E
:101250008D3091F71082CF911F910F91FF90EF90F9
:101260000895A1E21A2EAA1BBB1BFD010DC0AA1FE7
:10127000BB1FEE1FFF1FA217B307E407F50720F0FF
:10128000A21BB30BE40BF50B661F771F881F991F7A
:101290001A9469F760957095809590959B01AC01C3
:1012A000BD01CF010895A29FB001B39FC001A39FCC
:1012B000700D811D1124911DB29F700D811D11248F
:1012C000911D08950E945309A59F900DB49F900D04
:1012D000A49F800D911D11240895A0E0B0E0E3E7E4
:1012E000F9E00C94AF0A5C016B017A01611571059C
:1012F00019F0FB0191838083E114F10429F0C70107
:101300000297839708F0E5C0E5012196F501108169
:10131000812F90E00E94830A892B11F05E01F4CFA7
:101320001D3229F42196F501118101E007C01B321D
:1013300021F4E5012296F501118100E0E114F104A8
:1013400009F1F0E1EF16F10429F43FC010E3E114D4
:10135000F10421F128E0E216F10401F154F4E2E095
:10136000EE16F10421F5812C912CA12CB0E4BB2EBA
:101370003EC0FAE0EF16F10439F020E1E216F10484
:10138000B1F430C0103319F1FAE0EF2EF12CACECCF
:101390008A2E982CA82CACE0BA2E29C078E0E72E33
:1013A000F12C812C912CA12CE0E1BE2E20C060E01C
:1013B00070E080E090E897010F2C000C440B550B77
:1013C0000E94310949015A0112C0103359F4888131
:1013D0008F7D883509F0BACF19812296026080E1AD
:1013E000E82EF12C812C912CA12C68E0B62E40E047
:1013F00060E070E0CB0127010F2C000C6608770835
:10140000FE0150ED352E310E29E0231570F42FEB3F
:10141000210F2A3118F439EC332E06C02FE9210FA1
:101420002A3118F529EA322E310E232D30E02E15FF
:101430003F05DCF447FD16C086169706A806B906D8
:1014400070F0A30192010E949E0A630D711D811D1F
:10145000911D61307105810520E8920710F04FEF72
:1014600001C041E021961081CBCF202F2170C11403
:10147000D10471F0442329F02197F601D183C08370
:1014800007C001FF19C02297F601D183C08314C0A1
:1014900047FF12C0222329F060E070E080E090E86E
:1014A00004C06FEF7FEF8FEF9FE722E230E03093D1
:1014B000C4012093C30109C0222381F09095809537
:1014C000709561957F4F8F4F9F4F462F372F282F55
:1014D00012C040E030E020E090E00DC097FFF5CF73
:1014E00082E290E09093C4018093C3016FEF7FEF9D
:1014F0008FEF9FE7EACF642F732F822FCDB7DEB730
:10150000E1E10C94CB0A91110C949B0A803219F002
:1015100089508550C8F70895FB01DC0141505040C7
:1015200048F001900D920020C9F701C01D92415072
:101530005040E0F70895992788270895DB018F939D
:101540009F930E946209BF91AF91A29F800D911D50
:10155000A39F900DB29F900D112408952F923F925A
:101560004F925F926F927F928F929F92AF92BF92B3
:10157000CF92DF92EF92FF920F931F93CF93DF935F
:10158000CDB7DEB7CA1BDB0B0FB6F894DEBF0FBEBC
:10159000CDBF09942A88398848885F846E847D8409
:1015A0008C849B84AA84B984C884DF80EE80FD800B
:1015B0000C811B81AA81B981CE0FD11D0FB6F89481
:0E15C000DEBF0FBECDBFED010895F894FFCF42
:1015CE00FFFF0F00020002000200020002000200F4
:1015DE0002000200020002000200020002000200ED
:1015EE000200020062797465733A200052657175CB
:1015FE0065737420746F204F4E204C4544004E523C
:10160E0043202837462033312033352900283731FF
:10161E002030312041412030302900416363657311
:10162E0073207265717565737465642E2E2E00417C
:10163E006363657373206772616E7465642E0061F7
:10164E00736B20666F7220726571756573742031CD
:10165E007374006368636B20656E63727970746572
:10166E006420627974657300456E63727970746577
:10167E00642034206279746573004163636573730B
:10168E00206772616E746564283637303229004ED9
:10169E0052432028374620323720333529005265F1
:1016AE007175657374204163636573732031737450
:1016BE00000000000000000000000000000000001C
:1016CE000000000000000000000100020200020203
:1016DE00024D4320526573706F6E73653A20004D54
:1016EE004320526563656976653A20004661696CF0
:1016FE0065642E2E2E2054727920616761696E000A
:00000001FF
